:02000002E0001C
:10C000000000042075320F009D320F009F320F0098
:10C01000A1320F00A3320F00A5320F000000000074
:10C02000000000000000000000000000A7320F0028
:10C03000A9320F0000000000AB320F00AD320F003C
:10C04000B1170F00AF320F00D5310F00AF320F0024
:10C05000AF320F00AF320F00AF320F00AF320F0020
:10C06000AF320F00D91A0F00AF320F00AF320F00FE
:10C07000AF320F00AF320F00AF320F00AF320F0000
:10C080007DDA0E00AF320F00AF320F00AF320F007B
:10C09000AF320F00AF320F00AF320F00AF320F00E0
:10C0A000AF320F00AF320F00AF320F00AF320F00D0
:10C0B000AF320F00AF320F000000000000000000A0
:10C0C000AF320F00AF320F00AF320F00AF320F00B0
:10C0D00001D70E00AF320F00AF320F00D52D0F0089
:10C0E000AF320F00AF320F00CD520F000000000042
:10C0F00000000000AF320F0000000000AF320F0060
:10C10000000000000000000000000000000000002F
:10C11000000000000000000000000000000000001F
:10C12000000000000000000000000000000000000F
:10C1300000000000000000000000000000000000FF
:10C1400000000000000000000000000000000000EF
:10C1500000000000000000000000000000000000DF
:10C1600000000000000000000000000000000000CF
:10C1700000000000000000000000000000000000BF
:10C1800000000000000000000000000000000000AF
:10C19000000000000000000000000000000000009F
:10C1A000000000000000000000000000000000008F
:10C1B000000000000000000000000000000000007F
:10C1C000000000000000000000000000000000006F
:10C1D000000000000000000000000000000000005F
:10C1E000000000000000000000000000000000004F
:10C1F000000000000000000000000000000000003F
:10C2000010B5054C237833B9044B13B10448AFF390
:10C2100000800123237010BDC051002000000000E9
:10C22000C86A0F0008B5034B1BB103490348AFF3BD
:10C23000008008BD00000000C4510020C86A0F0043
:10C24000154B002B08BF134B9D46A3F5803A0021E8
:10C250008B460F461348144A121A07F073F90F4B16
:10C26000002B00D098470E4B002B00D098470020A1
:10C27000002104000D000D48002802D00C48AFF347
:10C28000008007F021F92000290000F001F907F0F3
:10C2900007F900BF000008000000042000000000B3
:10C2A00000000000C0510020F48A002000000000BF
:10C2B00000000000BFF34F8F0549064BCA6802F427
:10C2C000E0621343CB60BFF34F8F00BFFDE700BFB9
:10C2D00000ED00E00400FA057047000010B50368A7
:10C2E0002F2B044604D907494FF4F37004F052FB96
:10C2F00023681F2B83BF03F01F03236002484FF006
:10C30000A04010BD10530F000003005007B502AB52
:10C3100043F8040D1846FFF7E1FF019A012393400B
:10C32000C0F8083503B05DF804FB07B502AB43F86D
:10C33000040D1846FFF7D2FF019A01239340C0F87D
:10C340000C3503B05DF804FB07B502AB43F8040DF0
:10C350001846FFF7C3FF019B03F5E073022240F884
:10C36000232003B05DF804FB07B502AB43F8040DCE
:10C370001846FFF7B3FF019B03F5E073032240F873
:10C38000232003B05DF804FB08B5164B1A78013280
:10C39000D2B2022A88BF00221A701B78012B0ED05D
:10C3A00002D3022B12D008BD2720FFF7BEFF2A20A0
:10C3B000FFF7ACFF2420BDE80840FFF7A7BF272008
:10C3C000FFF7A4FF2A20FFF7B0FFF3E72720FFF7CE
:10C3D0009DFF2A20FFF79AFF2420BDE80840FFF7C1
:10C3E000A4BF00BFDC51002008B5FFF763FF08B50C
:10C3F000FFF760FF30B5054689B01920FFF7A4FFAD
:10C400002720FFF7A1FF2A20FFF79EFF2420FFF738
:10C410009BFF2320FFF798FF1C4805F0D3FA1B4829
:10C4200005F012FB194805F0E7FAEFF30582002347
:10C43000D5E9004183F3148883F3108883F31188CE
:10C4400083F31388C2F308023AB984F308884FF0E3
:10C45000FF339E46084709B030BD4FF0FF35203C02
:10C46000CDE90033CDE902330493CDE905514FF016
:10C470008073202269462046079307F058F884F31A
:10C480000888AE466FF006031847E4E7A0530F0094
:10C4900010B5272086B0FFF767FF2A20FFF764FF5B
:10C4A0002420FFF761FF06A8232340F80C3DFFF787
:10C4B00015FF039B124A03F5E073002440F8234064
:10C4C00092E8030004AB83E803000E4A0E481946C5
:10C4D00005F0ACF90123214600930C4A0A4805F007
:10C4E000E4FA094805F052FA094800F0C3FF04468F
:10C4F00008B1FFF7DFFE01F063F8204606B010BD7B
:10C5000008530F0089C30E00A0530F0040420F00D4
:10C51000D9C20E00062810B5044602D1002000F052
:10C52000A3FB044B1B681BB12046BDE81040184715
:10C5300010BD00BFE051002008B5074B1860002077
:10C54000FFF7E8FF054800F077FB20B90348BDE896
:10C55000084000F06DBA08BDE051002015C50E007E
:10C5600043690BB1C06818477047000000220249B8
:10C57000024801F0B7BF00BF345E0F00AC5100208D
:10C5800007B5009313460A460146034801F0C2FF6F
:10C5900003B05DF804FB00BFAC51002013460A460F
:10C5A0000146014802F006B8AC510020014B18705A
:10C5B0000B207047E4510020024B002218781A70BB
:10C5C000704700BFE451002018DF704730B585B0D8
:10C5D000054610220C466846002106F0B3FFA40869
:10C5E000684601950294FFF7EFFF05B030BD1FB517
:10C5F000062100234FF480526846CDE90012CDE9B0
:10C600000233FFF7E1FF072802BF4FF00051184641
:10C610000A6005B05DF804FB014B06201B68184753
:10C62000F05100200A2803D90B38C0B2FFF7BEBF73
:10C630007047000010B5044686B0002001F0F6FFF8
:10C64000014630B1164A1821204602F0B5F806B06E
:10C6500010BD1822684606F075FF04238DF80030DF
:10C66000104B196D104B1B68994211D10F4B186874
:10C6700000F072FD8DF80100FFF7D4FFD4E901133B
:10C680008DF8010068469847094800F0C3FADEE7D4
:10C6900001238DF801306846D4E901139847D6E7A5
:10C6A00035C60E00A8880020E8510020EC5100207B
:10C6B00019C60E0070B5836886B0044623B99B493D
:10C6C00040F2C12004F066F9162200210DF10200AB
:10C6D00006F038FF23788DF8003001228DF8012014
:10C6E0000C2B00F28E81DFE813F00D0079000F00B3
:10C6F000790079008C017900700079006E001C00CF
:10C700002F0074008DF80420D4E90113684698477F
:10C710009DF80130012B00F06581854B05201B68D9
:10C720005FE14FF08053D3F800210192D3F8042148
:10C730000292D3F80C2192020492D3F810219202B3
:10C7400003921B690593DFE743F20403794D1868F0
:10C750002A6A7949884214BF01230223012A227CD4
:10C7600008BF013352B902238DF80430EB680293FD
:10C77000724B0393C3F57E230493C5E7012A12D1BC
:10C78000884210D14FF440531B78142B8ABF43F2D8
:10C79000140300231B6802934FF48053039343F266
:10C7A00008031B68E8E79A4209D201238DF8043098
:10C7B000AB68029300F0C4FAAB690390DCE7FF2397
:10C7C0008DF80430A0E7237CFAE7238AADF8043023
:10C7D0009AE7574B07201B68984795E7062B584A5E
:10C7E00001D0012B01D1216911701178012904D0E8
:10C7F00002295DD00023137095E0013B072B51D82F
:10C80000DFE803F004504A3250475010484B0320F1
:10C810001B689847606900F097FBFFF703FF8DF8EE
:10C82000010071E7236923B940494FF4877004F090
:10C83000B1F8A38A23B93D4940F20F1004F0AAF8D9
:10C84000A18A206900F09CFBFFF7ECFE394B8DF8C4
:10C850000100DA6B1B6C0293E3680192002B3FF43A
:10C8600053AF206998474FE73649374800F0AEFB91
:10C87000FFF7D8FE01288DF801007FF445AF0020B6
:10C8800000F0C8F900283FF43FAF0A238DF80130CB
:10C890003AE74FF480730393264BDA6B1B6C0192DB
:10C8A000029331E7214940F2731004F073F82BE74B
:10C8B000013B072B00F2A180DFE803F0049F7B809F
:10C8C0009F969F4800F07CFB08B90823DEE7626969
:10C8D0000AB90323DAE7C2F30B0333B1154B194945
:10C8E0005B6D096813448B42F3D1B2F5805F01D9C7
:10C8F0000423CBE70F4B1349586D096815188D4277
:10C90000E3D85A64DA6C9A64186518630E4B61694F
:10C910001B6801F6FF710022090B1844FFF73EFE69
:10C9200000283FF4F1AE0523B0E700BF5C550F00CF
:10C93000F0510020A8880020DBE5B15100C00E00B6
:10C9400000510020E8510020EC51002000F038FB9D
:10C950000028BAD02C4DD5E914329B1AA28A134470
:10C960006A6C9342B5D8294B2E6B1B681E44E36852
:10C9700023B927494FF4F37004F00CF8E368A28A56
:10C9800021693046FFF7FCFD08B1E36869E7A28A38
:10C990002B6B13442B63A28A2B6D13442B651D4A0A
:10C9A000A18A206901F082FD2B6DA8640290019399
:10C9B000AAE6154B9A6C02921B6DF8E7124BD3E96D
:10C9C0001402596C821A8A427FF47FAF9A6C5865C0
:10C9D000002120465964DA64FFF72CFE0E4B1B68D9
:10C9E0000420984706B070BD074B9A6C1B6D0193ED
:10C9F0004FF480530292039386E6054940F2892062
:10CA000053E7022342E700BFA8880020EC51002032
:10CA10005C550F00F0880020F051002083681BB1A6
:10CA2000024A182101F0C8BE07207047B5C60E00A3
:10CA300038B50546C0B10020FFF798FD044648B957
:10CA400000F04EFA00F0BCFA30B9084B00201D602F
:10CA5000FFF7ACFD204638BD0549064800F0B6FAA0
:10CA60000128F2D00324F5E70724F3E7F051002072
:10CA7000E8510020EC51002010B500220446582156
:10CA8000043001F013FD23681B1A5842584110BDB1
:10CA90002DE9F04115464FF4AE72064688461F4612
:10CAA00006F036FD18B905B1A847002006E00022BF
:10CAB00001213046FFF772FD10B10320BDE8F0817F
:10CAC0004FF4AE724146384606F031FD2B464FF426
:10CAD000AE7239463046FFF753FD0028E5D0ECE74B
:10CAE00070B5084C054600225821204601F0DEFCB6
:10CAF0002A4644F8040C211F034B0448BDE870404B
:10CB0000FFF7C6BFAC880020F451002000F00F00F2
:10CB1000F8B5FFF72BFD044610B103242046F8BDFD
:10CB200023480368013329D0FFF7A6FF0646214DAD
:10CB30002868036801332F4622D0FFF79DFF56B3C4
:10CB400078B328681C495422043006F0E1FC0546FD
:10CB500038681A494FF480725C3006F0D9FC05B988
:10CB6000F8B139684FF4AE72154806F0E0FC0020C9
:10CB7000FFF7B6FF04460028D0D0CEE72646D6E71A
:10CB80007EB90F4C4FF4AE720021204606F0DAFC5D
:10CB900001236360EBE70028F3D04FF4AE722968FD
:10CBA000E2E74FF4AE720249054806F0C0FCB5E773
:10CBB00000F00F000451002004F00F005CF00F00A3
:10CBC000A888002070B505460B48036801330C4661
:10CBD0000DD10A4940F2611003F0DCFE0848094B10
:10CBE00000682A462146BDE87040FFF751BFFFF7B5
:10CBF00043FF0028F2D1ECE700F00F00F9550F00D9
:10CC000004510020505300200149FFF7DBBF00BF53
:10CC100000F00F0038B505460020FFF761FF04461D
:10CC200018B903492846FFF7CDFF204638BD00BF9D
:10CC3000A888002000207047F8B5094E094CA41BB5
:10CC40000746E4080025A54201D10020F8BD56F8AA
:10CC50003530384698470028F8D10135F3E700BF52
:10CC6000D46A0F00DC6A0F00F8B5094E094CA41B0A
:10CC70000746E4080025A54201D10020F8BD06EBD7
:10CC8000C50338465B6898470028F7D10135F2E7BD
:10CC9000D46A0F00DC6A0F0008B50C22002106F0F0
:10CCA00051FC024B00221A6308BD00BFA888002077
:10CCB00008B543F204000C4B02689A4212D10023DB
:10CCC00004220A49FFF75CFC60B9094B1A6A43F277
:10CCD0000801012A08BF18629A6909680A44A2F586
:10CCE00080529A6108BD00BFDBE5B15194560F0038
:10CCF000A888002043F204031A68084B9A4201BF37
:10CD000043F20803186800F6FF7020F47F600CBF40
:10CD100020F00F004FF48050704700BFDBE5B151A9
:10CD200008B5FFF7E7FF054B9B69184400F6FF7055
:10CD300020F47F6020F00F0008BD00BFA88800200D
:10CD4000FFF7D8BF4FF480507047000010B50B4C70
:10CD5000236A012B0DD170B1E3694BB1FFF7CAFF14
:10CD60000022A16901F0A2FBE3691B1A5842584155
:10CD700010BD0020FCE71846FAE700BFA888002095
:10CD80002DE9F74FDFF8D4A0DFF8CCB02F4E00919B
:10CD90000546174601934FF00008B8F1010F22D065
:10CDA000B8F1020F2ED0FFF7BBFF8146CFB1DBF801
:10CDB0002040631E5C425C414E4503D22449CF2093
:10CDC00003F0E8FDA6EB0902AA4201D3009BFBB1E8
:10CDD000E4B9B8F1020F35D008F101035FFA83F826
:10CDE000DBE73C46E8E7FFF785FF019B81463BB95F
:10CDF00043F204010C68B4EB0A0418BF0124DBE71A
:10CE00004446D9E701244FF48059D5E7AA421BD301
:10CE1000B8F1020F05D1FFF74BFF0E48FFF73CFFBB
:10CE200002E0B8F1000FF8D10B4E0024012306F107
:10CE30002400C6E90443FFF72FFF7562204603B0C4
:10CE4000BDE8F08FAA42E6D20420F8E700900E0079
:10CE500098560F00C0880020A8880020DBE5B1515B
:10CE600030B50E490E4C8A6B85B06D4628465C3154
:10CE700003F024FF95E80F0084E80F00094B0A4AED
:10CE8000E36000231360094A09491360094A2046F8
:10CE900005B0BDE8304004F0B2B900BFA88800205A
:10CEA000EC560020B9CE0E004C550020485500200D
:10CEB000EC540F00705500205B68DA68054B9A420D
:10CEC00007D1D0E90123044901320A60034A013B3A
:10CED0001360704748540F004C55002048550020FF
:10CEE00030B5134D134CAB6B91B0FBB1FFF7B8FFEE
:10CEF000E0B16B6AD3B10123237001F0AFF918B12F
:10CF00000D49B02003F046FD20220C49684601F08F
:10CF1000F5F940236A460A490A4801F0F1F818B1C8
:10CF20000549BB2003F036FD11B030BD0023E3E717
:10CF3000A8880020845700202F570F00A8530F0007
:10CF4000FC560020BC5B0F0038B5054678B1B0F543
:10CF5000807F0ED8084C094B0021202204F13800B4
:10CF60001970216306F0EEFAA563012038BD032095
:10CF7000FCE70420FAE700BFA888002084570020BF
:10CF800070B50E4C0646E06BA36B42189A420D46F4
:10CF900011D85C300A462044314606F0C8FAE36BEB
:10CFA00004F140022B4429463046E36301F07EFA47
:10CFB0002064012070BD0320FCE700BFA88800208A
:10CFC000014B1878704700BF845700202DE9F04FBF
:10CFD000534CD4E90E329A4287B00646884640F058
:10CFE0009880504F3B7853B1FFF79AFE3060636AE8
:10CFF000C8F800300124204607B0BDE8F08FFFF7E5
:10D000002FFF002800F08780474B93F89C101A46AA
:10D0100011B91B78002B7ED000233360C8F8003094
:10D0200092F89C405CB1414C92F83831A4F19A05D9
:10D030004FF0200BCDF814B024B91324DBE72346BE
:10D040003B4DF5E7002B4BD105AB0193DFF800A179
:10D05000384B394ACDF800A01B6812683749384868
:10D0600001F0E2F8002839D12388402B36D1DFF8CF
:10D07000E49003931A46A11C484606F058FA594614
:10D08000484601F048F9039B2E492F48CDE900930B
:10D090005246059B01F050F800283CD1281D00F0B5
:10D0A00021F901280446A6D195F859303870CBB93A
:10D0B00095F86820B2B1E86E78B3C8F80000AB8A82
:10D0C0001BB1AB69003318BF012300221146FFF7E3
:10D0D00057FED0B9FFF724FE30608CE70A248AE7B8
:10D0E000162488E713F0010003D095F85A0000B128
:10D0F000E86D9B07E0D595F86030002BDCD0134B32
:10D100006A6EC3F57E239A4201D9042473E7104462
:10D11000D2E708246FE705246DE70F246BE700BF13
:10D12000A88800208457002070550020AA560020AF
:10D1300074550020485500204C550020605C0F00BD
:10D14000CC540020FC5600208857002000C00E0060
:10D1500050550020445700202DE9F043574BDFF88D
:10D16000809193F89C20564C03F1A40508338DB0B0
:10D17000002A08BF1D464FF0200806460F464246CB
:10D1800005F1720104A8CDF80C8001F09BF803AB07
:10D190000193CDF800903B4632464A494A4801F097
:10D1A00043F820B117254948FFF776FD18E04246BD
:10D1B00004A9484606F0ACF90028F3D195F855309B
:10D1C000FBB923622B8A0122E2620BB16B690BB9B6
:10D1D000FFF76EFD6B68A360A36CC4E909730125BA
:10D1E000202200213A4806F0ADF9F422FF21394807
:10D1F00006F0A8F9002328462363A6640DB0BDE815
:10D20000F08303F00208DB074DD542F20403F15826
:10D2100003F1A34303F5471303F2D753994245D1D2
:10D22000AB6D03F5FF5203F6FF731F32C3F30B031D
:10D23000D31A42F20802B2589A4237D343F2040397
:10D240001B688B4214BF012300231AD14FF44053B3
:10D250001B78142B81BF43F2140318681E4BB0FBDC
:10D26000F3F006F500531B78142B89BF42F2140328
:10D270000023F358184A88BFB3FBF2F3C31A18BF50
:10D28000012313B11548FFF707FDB8F1000F14BFD4
:10D29000AC23A523E362AB6D6363B8F1000F9BD0B1
:10D2A0006B68E36098E7AA23E362F6E7FFF74AFDBD
:10D2B000B04201D1FFF7FCFC052574E77055002052
:10D2C000A8880020605C0F00CC540020CC8800208F
:10D2D000E08800200489002040420F00C088002020
:10D2E000AC540020F8B5044618B92849A22003F030
:10D2F00051FB94F85430002B42D094F85510032978
:10D300003ED894F86E30032B38D1237A002B37D0D7
:10D31000E368342B36D143F20402238A10681C4A96
:10D32000904220D19BB162698AB104F11405DBB24D
:10D33000002243F20C06D0B2834201D8122011E041
:10D3400055F822703088874202F10102F3D1237828
:10D350007BB1012918D90F4B6068DB6898428CBFFC
:10D3600001201020F8BD002BF1D06369002BEED016
:10D37000E4E701298CBF0F200120F3E71420F1E737
:10D380000F20EFE71120EDE70120EBE7CB570F006F
:10D39000DBE5B151A8880020014B01221A707047CB
:10D3A0004C5C0020BFF34F8F0549064BCA6802F45E
:10D3B000E0621343CB60BFF34F8F00BFFDE700BFB8
:10D3C00000ED00E00400FA052F2810B504460DD941
:10D3D00009494FF4F37003F0DDFA084B04F01F0421
:10D3E000D3F81005E04000F0010010BD1F28F4D86C
:10D3F0004FF0A043F4E700BF10530F0000030050AC
:10D40000024B034800221A70FFF7FEBB4C5C002061
:10D41000A5D30E00C31E10B50446042B0ED8DFE8BA
:10D4200003F003030D1414000C4B0D491B78002B63
:10D4300014BF4FF47010002000F0C0F9094B1B68B6
:10D4400053B12046BDE810401847074B074800225B
:10D450001A70FFF7D9FBF1E710BD00BF545C002044
:10D4600001D40E00505C00204C5C0020A5D30E00BF
:10D470000020704738B5474B474A18604FF0A0432B
:10D480000020C3F86427FFF743FB054668B9232053
:10D49000FFF79AFF414C50B90123237000F072FA54
:10D4A00001286BD005D302286FD0032038BD25702A
:10D4B000F4E7207800286BD14FF08043D3F80024A4
:10D4C000D20331D54FF48032C3F80024FFF73EFC7D
:10D4D000002836D14FF4701400F0DCFA304A2021D5
:10D4E000182001F045F908B1FEF781FF2D4B1A68AD
:10D4F00012F0B10F1EBF1A6802F04E021A60FFF759
:10D50000B7FF0028D1D12046274900F057F9274816
:10D51000FFF712F80028C8D100F0E2FA01F0ACF9E8
:10D5200020BF40BF20BFF7E7D3F8202512F0A90F96
:10D530001DBFD3F8202502F05602C3F82025012094
:10D54000C4E71920FFF740FF0028C3D0154B1B6824
:10D5500013F0B10FBED1FFF76DFB0028A5D1144C1D
:10D5600020701448FFF750FB237823B912494FF479
:10D57000D67003F00FFA00F023F896E70C4B0F4833
:10D5800000221A70FFF740FB8FE74FF4A024A3E7B7
:10D590000024A1E7505C00200C000300545C002034
:10D5A0002C5800201C05004001D40E0015D40E009C
:10D5B0004C5C002099D30E006B580F00A5D30E00D1
:10D5C00008B5074B4FF0FF32C3F88020C3F8802125
:10D5D000FFF70DF84FF48050BDE80840FEF70ABF92
:10D5E00000E100E0B1F1807FF7B507460C4637D384
:10D5F0001E498F2003F0CEF96FF07F431C4EA342EB
:10D6000028BF2346D6F80455E41A1D44631E942B04
:10D6100096BF96347C607C603C7B25F07F4598BF4C
:10D62000963D032C03D91149772003F0B3F904F593
:10D63000A873104A46F823504FF4F86042F00102F4
:10D6400090470D4BA200134400221A601B680193FF
:10D65000019B4FF48033A340C6F8043303B0F0BD00
:10D660009529C9D801499020C4E700BF06590F0089
:10D670000040024000590F004041024018490A781A
:10D6800084B0002A29D14FF08043A020D3F8183469
:10D69000DB035EBF134B01221A60134A00231360A1
:10D6A00012680392039A114A136012680292029A56
:10D6B0000F4A136012680192019A0E4A82F82403FD
:10D6C000102050600C4A0D48C2F808350123036051
:10D6D00002201360C2F804030B7004B0704700BF4F
:10D6E0005C5C0020080000400041024040410240D4
:10D6F0004441024000E100E0004002400840024096
:10D7000013B5284B1A6842B127490A6801320A60EA
:10D7100000221A601B680093009B244B1A68A2B178
:10D7200000221A6022481B68027B0193019B4FF480
:10D73000803393401F4AC2F808334168044601BB56
:10D740008168D9B9236803B198471B4B1A6832B373
:10D7500000221A6016481B68027F0193019B4FF458
:10D7600080339340134AC2F808334169044659B1E3
:10D77000103002B0BDE81040FFF734BFFFF732FFB2
:10D78000E0E7FFF72FFFE0E7816911B11030FFF705
:10D7900029FF23691BB102B0BDE81040184702B051
:10D7A00010BD00BF04410240585C002040410240CF
:10D7B00008510020004002404441024070B50B4B2C
:10D7C0001C68227B4FF480339340094A0E46C2F80E
:10D7D0000833054640B1FFF751FF26602946204631
:10D7E000BDE87040FFF7FEBE70BD00BF28510020AD
:10D7F0000040024070B5074B1C680E46A06005460D
:10D80000FFF73CFF266029462046BDE87040FFF741
:10D81000E9BE00BF2C510020014B01221A70704755
:10D820005D5C002038B50F4BDA6A5D6A9C6CAC2AEF
:10D8300010D15B6B1C44ED1A2A4621460A4805F0BC
:10D8400067FE68B100F04CF929462046BDE8384033
:10D85000FEF7BCBE002CEFD1FFF762FA0446EBE7FF
:10D8600038BD00BFA888002000C00E0081422DE90D
:10D87000F74F05468946164603D228494F2003F044
:10D8800089F8C5F30B031BB12449512003F082F83A
:10D89000A9EB0504240B03D12049542003F07AF8A6
:10D8A00000F0F8F8082C28BF082406F6FF772303B9
:10D8B000DFF86CB001933F0B0EB9334629E0BC4250
:10D8C0002CBFBA46A2464FF00002514628462CBF54
:10D8D000B046DDF80480FEF761FE0346C8B908F1E2
:10D8E000030222F0030249462846FEF749FE03469A
:10D8F00078B9DBF830304344CBF83030FFF78AF9A1
:10D90000A7EB0A07A6EB08064544C14403460028D6
:10D91000D2D0184603B0BDE8F08F00BFA5590F0064
:10D92000A888002010B5FFF70DFA154A42F204034B
:10D93000916CCC5803F1A34303F5471303F2D7537B
:10D940009C4218D1D2E90C32934216D018441944A3
:10D95000884204D10020BDE81040FFF75BB9D21A1D
:10D9600002F6FF7222F47F6222F00F02FFF77EFFC1
:10D970000028EFD010BD0320FCE70020FAE700BF2D
:10D98000A888002070B52A4CE36AA52B3AD003D8AA
:10D99000012B0BD0002034E0AA2B37D0AC2BF9D1CF
:10D9A000FFF7C0FF80BBFFF73DFF2DE0A56C666A67
:10D9B000FFF7A0F9226B1044A918884232D1FFF773
:10D9C00099F90022314600F071FDA36A984202BF26
:10D9D0000123C4E90703A66100241648164DFFF78A
:10D9E0005BF9002315482B70FFF714F92B780646D6
:10D9F00023B9134940F2A31002F0CCFF86B944B911
:10DA0000012070BDFFF78EFF0124E6E7FFF70AFF54
:10DA1000E2E70120FFF79AF90028F1D00220F0E7B1
:10DA20000320EEE7B21AFFF721FF0028D4D1C6E7A2
:10DA3000A8880020CC8800205D5C002019D80E004A
:10DA4000A5590F000A4AD2F800347BB109480023D7
:10DA5000D2F80815D940C90748BF03F5C07103F1D2
:10DA6000010348BF42F82100072BF1D1704700BFE6
:10DA7000000001403546526EFFF7E4BF044B002220
:10DA800082B01A601B680193019B02B0704700BF0F
:10DA90000001014038B50E4C2278BAB90D4BD3F8CD
:10DAA00000248AB1D3F80455FFF7CCFF40F6165096
:10DAB000A842B8BF28460849A0F54860FFF79AFE7B
:10DAC000064B4FF480321A600123237038BD00BF2B
:10DAD0005E5C00200000014079DA0E0000E100E009
:10DAE000034BD3F800340BB1FFF7ACBF704700BF56
:10DAF00000000140030A08704B70030C000EC87050
:10DB00008B700420704770B50378082B06460D46CD
:10DB10000BD14B880A88013B9BB24B80002A78D0FE
:10DB2000002B76D103234A8003702C696023237075
:10DB3000337863707378A3707378012B5ED1337878
:10DB40000B2B64D8DFE803F05663633A63634350FA
:10DB500063560629E11C7068FFF7CCFF0330C2B2A0
:10DB6000A118B068FFF7C6FF0244D2B2A118F0684E
:10DB7000FFF7C0FF0244D2B2A1183069FFF7BAFF25
:10DB80000244D2B27069A118FFF7B4FF1044C1B2C9
:10DB90006B682046BDE8704018473379E370211D5B
:10DBA000B068FFF7A7FF0430C2B2A118F068FFF712
:10DBB000A1FF0244D2B2A1183069E5E7E11C706808
:10DBC000FFF798FF0330C2B2A118B068DCE7E11C90
:10DBD000F068FFF78FFF0330C2B2A1187068FFF73B
:10DBE00089FF0244D2B2EFE7B388E3701B0A2371C6
:10DBF0000521CDE73379E3700421C9E70B2B06D16A
:10DC0000FEF7DAFCE0700020FEF7D0FCF4E7032119
:10DC1000BEE770BDF0B50C4687B0054616464F1CF2
:10DC200018220021684605F08DFC23781E4A8DF8E5
:10DC30000030013B02920195AA680A2B0DD8DFE85B
:10DC400003F012060C0C0C0F2A1A2E0C2E00A178D1
:10DC5000637843EA01232B806B80384690470FE0BE
:10DC600063780493F9E72B886B8063780493D4F886
:10DC700002300593F1E7013E0497ADF8146003927A
:10DC80006846FEF7CBFE20B108494FF4847002F0DD
:10DC900081FE07B0F0BDEB68ADF81030DDE76378CA
:10DCA0008DF81030D9E700BF07DB0E00475A0F0090
:10DCB00000207047011F014800F0D4BBDC6A0F0050
:10DCC00037B50D46044618B90A49932002F062FEA2
:10DCD0001DB90849942002F05DFE01AB2A46214699
:10DCE000054800F0FBFD019A0349044802F078FD65
:10DCF00003B030BD0C5B0F0003750020E85A0F0025
:10DD000001F04EBA10B50446194800F043FB194B18
:10DD100017481C6000F07CFB38B3174B002140F61D
:10DD200003020330C3E9021258601970134B1449FF
:10DD300059601449C3E90212134A1A6103F01EFB29
:10DD4000852800D090B9002003F090FB70B901F055
:10DD5000EFFE0E4800F0AEFF40B90D4801F070F83C
:10DD600020B9BDE8104001F01BB8032010BD00BF72
:10DD7000DC6A0F00E85C00208875002074750020C4
:10DD8000C1DC0E00B5DC0E001C750020B05B0F007E
:10DD9000E85A0F00083810B5062820D8DFE800F050
:10DDA00008141B1F1F1F0400BDE8104001F010B82D
:10DDB00004F0C8FA08B901F009F8094B1B6873B1FF
:10DDC0000120BDE81040184701F030F8044B1B68F3
:10DDD0002BB10220F5E7BDE8104001F009B810BDF5
:10DDE000E85C002003780BB901F0DAB9014A04219C
:10DDF00000F0E2BC01DD0E00F8B501BB144E154C7D
:10DE0000154F3178134800F09DFD054678B9384626
:10DE1000FEF72AFF1148D4E90112FFF7FBFE104874
:10DE200000F0F6FA18B10330C4E9010525700122AB
:10DE300031460C4802F0F4FC0028E2D0F8BD02297B
:10DE4000FCD1012202490748BDE8F84002F0E8BCD5
:10DE50003475002088750020D46A0F007475002086
:10DE6000DC6A0F00E85A0F0038B52022044608305B
:10DE70000D4605F05CFB2022A91804F1280005F0EE
:10DE800056FB002038BD00002DE9F3411B4D98469C
:10DE90001B4B036004460E4628460121174600F03E
:10DEA00045FABFF35F8F20BB00F0ECF83B46089AC1
:10DEB000CDF8008006F10801204606F0ADF80446D2
:10DEC00000F0EEF82B68012B03D00E49932002F0EE
:10DED00061FDBFF35F8F00232B606CB10A4A48F2EB
:10DEE000425348F21650944208BF184602B0BDE8AB
:10DEF000F08148F20450F9E72046F7E7048A002051
:10DF0000DD55AABBC85B0F008408F0000C4B98429B
:10DF10000DD006D820B1013B98420BD048F21650E4
:10DF20007047084B984208D00D339842F6D148F21A
:10DF30000350704748F20150704748F20250704752
:10DF40000102F0000202F00008B5083006F0CEF839
:10DF5000BDE80840FFF7DABF10B5064C2268012A79
:10DF600003D00549932002F015FDBFF35F8F002316
:10DF7000236010BD048A0020C85B0F0013681F2BAC
:10DF800070B505460E46144619D901210F4800F018
:10DF9000CDF9BFF35F8FA8B900F074F8314605F1F1
:10DFA000080006F015F9054600F07AF8FFF7D4FFEF
:10DFB0002846FFF7ABFF08B92023236070BD48F265
:10DFC0001450FBE748F20450F8E700BF048A002031
:10DFD0002DE9F04107460E4617480121144600F08E
:10DFE000A5F9BFF35F8F18BB00F04CF8DFF84C8049
:10DFF0000837B4F5805F254628BF4FF480552A4680
:10E000003146404605F093FA2A464146384606F026
:10E0100087F8641B2E44054608B9002CE9D100F0AE
:10E020003FF8FFF799FF2846BDE8F041FFF76EBFC4
:10E0300048F20450BDE8F081048A00209875002061
:10E04000024B0020C3F80005704700BF00A002503B
:10E0500038B50A4B00251D60BFF35F8F084C0123C4
:10E06000C4F8003506F0E4F8C4F8005520B10528DE
:10E0700048F2035018BF032038BD00BF048A0020B7
:10E0800000A00250044B0122C3F80025034B4FF4BB
:10E0900080625A60704700BF00A0025000E100E0BB
:10E0A000044B0022C3F80025034B4FF48062C3F8F1
:10E0B0008420704700A0025000E100E028B139B18F
:10E0C0000023C1E900301846704748F210507047ED
:10E0D00048F21350704730B1036848F240508B4209
:10E0E00008BF0020704748F21050704728B148F22E
:10E0F0001150914208BF0020704748F210507047FD
:10E1000070B506460C461D46FFF7D8FF50B9B379E7
:10E110004AB1AB420AD111462046FFF7A5FE08B925
:10E12000044B236070BD48F21050FBE748F21150D9
:10E13000F8E700BF7052464D2DE9F04383B00D461D
:10E1400002AF04461149D7F8208028461646994662
:10E15000FFF7C1FF98B96B68796A5A794046520057
:10E16000FFF7C4FF58B976B10CB9ACB002ACCDF82A
:10E1700000804B46324629462046FFF785FE04378D
:10E18000BD46BDE8F08348F21050F8E77052464DA6
:10E1900010B5044638B149B141600B68984708B9D9
:10E1A000044B236010BD48F20150FBE748F21050C9
:10E1B000F8E700BF6E524648F0B448B107680A4E0F
:10E1C000B74209D159B16AB14368F0BC5B681847DE
:10E1D00048F20150F0BC704748F20250FAE748F2AA
:10E1E0001050F7E71046F5E76E524648F0B460B1BC
:10E1F00007680C4EB7420CD171B143681568DC68F2
:10E20000A5420CD39B68F0BC184748F20150F0BC03
:10E21000704748F20250FAE748F21350F7E748F225
:10E220001450F4E76E5246482DE9F0410446174673
:10E230009846DDE90656FFF7ABFF60B9424639461E
:10E240002046FFF7B9FF30B9324629462046BDE8DF
:10E25000F041FFF7CBBFBDE8F0810000F8B50A4FF1
:10E260000A4C0B4DE41B0121E40829700026A6424C
:10E2700003D102232B700020F8BD57F836309847A1
:10E280000028F9D10136F2E7CC6A0F00D46A0F00FA
:10E290009885002038B50C46054618B90849332042
:10E2A00002F078FB611E29442846884200D938BD17
:10E2B00003780A7800F8012B01F80139F5E700BF6F
:10E2C000785C0F0070B50D461446064618B90A4929
:10E2D000452002F05FFB1DB90749462002F05AFBBA
:10E2E000621E3244013DB24200D270BD15F8013FBA
:10E2F00002F80139F7E700BF785C0F0070B51646E9
:10E3000004460D46FFF7DEFF3246A919A019BDE805
:10E310007040FFF7D7BF38B50D460446FFF7BAFF88
:10E3200029466019BDE83840FFF7B4BF50E8002F18
:10E330000B4640E8003C9CF0000FF7D110467047B8
:10E3400050E8002F42EA010340E8003C9CF0000F37
:10E35000F6D11046704750E8002F02EA010340E86A
:10E36000003C9CF0000FF6D11046704750E8003F8B
:10E3700003EA010240E8002C9CF0000FF6D11046A1
:10E3800070470121FFF7DCBF0021FFF7E4BF002148
:10E39000FFF7ECBF10B50446002834D003681BB962
:10E3A0001A49FF2002F0F6FA636823B917494FF4BF
:10E3B000807002F0EFFAA36823B9144940F201100B
:10E3C00002F0E8FAE36823B910494FF4817002F0D3
:10E3D000E1FA238A23B90D4940F2031002F0DAFA78
:10E3E000D4E9012321689B1ADBB20A60013BDBB24E
:10E3F000FF2B226802D10020107110BD1168481C4B
:10E4000010600B70F2E70E20F7E700BF0B5D0F0006
:10E4100038B5044620B912494FF4927002F0BAFAA6
:10E42000002002F07BFA2268616813688B4215D9DC
:10E43000591E116013F8015C228AE36802FB05355E
:10E440002268A36811685B1A1179DBB2994200D285
:10E450001371002002F072FA284638BD0025F8E753
:10E460000B5D0F0038B50C46054620B90E4940F249
:10E47000471002F08FFA24B90B494FF4A47002F050
:10E4800089FA002002F04AFA2A681368591C1160C0
:10E49000EA68A41A2A8AB4FBF2F41C700020BDE8D2
:10E4A000384002F04BBA00BF0B5D0F0030B53AB1F7
:10E4B0001368DB430A4D0144884204D1D84330BD80
:10E4C0004FF0FF33F6E710F8012B5340082213F00A
:10E4D000010418BF2C46013A84EA5303F7D1EBE755
:10E4E0002083B8ED70B50D461646044618B90849A4
:10E4F000552002F04FFA1DB90549562002F04AFA9C
:10E5000025602B6831462046BDE87040184700BFA3
:10E51000975D0F002DE9F041DDF818800E46174693
:10E520001D46044618B92249882002F033FA1FB963
:10E530001F49892002F02EFA23681BB91C498A2042
:10E5400002F028FA1DB91A498B2002F023FA6368F9
:10E550005A68B5FBF2F302FB13531BB114498E202A
:10E5600002F018FAB20703D01149912002F012FA12
:10E57000BB0703D00E49922002F00CFAE3689E42DA
:10E5800004D3731E22692B44934203D90849932074
:10E5900002F000FA2368CDF81880D3F80CE03A4670
:10E5A0002B4631462046F446BDE8F041604700BFA7
:10E5B000975D0F002DE9F0410D4616461F460446B3
:10E5C00018B919499E2002F0E5F923681BB91649CC
:10E5D0009F2002F0DFF91EB91349A02002F0DAF9FA
:10E5E00063681B68013B2B4203D00F49A32002F054
:10E5F000D1F9E3689D4207D363681B686A1E03FB79
:10E6000006232269934203D90749A82002F0C2F9E0
:10E610002368D3F810E032463B4629462046F446AC
:10E62000BDE8F041604700BF975D0F002DE9F04164
:10E6300008B10368C3B90E4E0E4B14229B1B002475
:10E64000B3FBF2F3374602FB03F5A54201D10020EC
:10E6500008E03B5930190BB91434F6E7DB699847E9
:10E660000028F9D0BDE8F081DB69BDE8F04118472A
:10E67000AC510020C0510020014B43600020704786
:10E68000285E0F000846704700207047024B18684C
:10E69000003018BF012070479C85002008B5024853
:10E6A000FFF775FE002008BD9C85002008B51046C8
:10E6B0001A4604F03CFF002008BD00002DE9F0419F
:10E6C000804686B013480E4615461F46FFF759FE92
:10E6D000044630B1112018E006EB043004F092FD3E
:10E6E0000134A542F8D10B48FFF751FED8F80830A5
:10E6F00000246BB1022268468DF80020CDE9014666
:10E70000CDE9034505979847204606B0BDE8F0815E
:10E710001846FAE79C8500202DE9F041804686B036
:10E7200012480F4616461D46FFF72BFE0446D8B981
:10E73000AA083146384604F07DFD0C48FFF727FE55
:10E74000D8F8083073B101228DF800200C9A059298
:10E750006846CDE90147CDE903659847204606B0F4
:10E76000BDE8F0811846FAE71120F8E79C85002003
:10E7700012F0030310B511D1094C22604C1CE400C7
:10E78000A4B22244074C2260074A1370074A137050
:10E79000074A1080074A1846118010BD0720FCE781
:10E7A000A8850020A4850020A0850020B085002039
:10E7B000AC850020AE8500202DE9F047284D2B8840
:10E7C0008B4206460C46174645D3002002F0A6F8B9
:10E7D000244B254A2548197813780088DBB28342F8
:10E7E00038BF0133C9B234BFDBB2002399422CD009
:10E7F00092F800801378DBB2984286BF0133DBB217
:10E8000000231370002002F099F84FF6FF7398452B
:10E8100023D0DFF860A0DAF800304FEAC80903EB34
:10E82000090243F838709EB194B1114B28881B68D7
:10E83000224608FB0030314604F079FEDAF8003059
:10E840004B4400209C80BDE8F0874FF6FF78D9E765
:10E8500000209080F7E70920F5E70420F3E700BFE8
:10E86000AC850020B0850020A0850020AE8500206A
:10E87000A4850020A8850020F8B5124C124D26462C
:10E8800022782B789A4200D1F8BD23780F48104A9D
:10E89000078812680F48DBB219B202EBC10C00689E
:10E8A00052F83120BCF8041003FB070090470A4AD5
:10E8B00023781288DBB29A4286BF0133DBB2002391
:10E8C0003370DDE7B0850020A0850020AC850020F6
:10E8D000A8850020A4850020AE850020F0B578B37F
:10E8E00071B36BB300241C600A44DB274FF0DC0CCF
:10E8F0004FF0DD0E1C688A4204F1010500EB0406AE
:10E9000004D11D60C02333700020F0BD0E78C02EEE
:10E9100005D0DB2E0CD01D600D78055506E01D607E
:10E9200007551C68651C1D6000F804C00131E1E753
:10E930001D6006551C68651C1D6000F804E0F5E7C5
:10E940000E20E2E710B588B3D0E9023293422FD00F
:10E950000278012A10D003D3022A21D0112012E01C
:10E96000C02927D0DB2902D101230370F6E74268D2
:10E970005C1C8460D154F1E7DC2905D0DD290AD084
:10E98000022303700B2010BD591C42688160C02116
:10E99000D1540023E9E7591C81604268DB21F7E785
:10E9A000C029DBD1002303708360D7E70E20EAE79C
:10E9B0000420E8E70020E6E7024B5B6803B1184754
:10E9C000704700BFB4850020024B01465A681868A2
:10E9D000104700BF088600200378052B0CD1084A99
:10E9E000D2F88434D2F8802412F0FF0F04D1054A03
:10E9F000DBB2052B08BF1046034B1B68184700BF4E
:10EA00000070024010600F00B4850020FFF7E4BFE3
:10EA100038B50D46044620B9064940F2431001F0CE
:10EA2000B9FF6378AB4283BFA0784019001900207A
:10EA300038BD00BF5B5E0F0038B50D46044620B9F7
:10EA400006494FF4887001F0A5FF237AAB4283BFDB
:10EA5000093405EB45056019002038BD5B5E0F00E9
:10EA600070B50D46044620B90D4940F20F1001F073
:10EA700091FF636823B90A494FF4887001F08AFF57
:10EA800063681B6823B9064940F2111001F082FF48
:10EA90006368294620461B68BDE87040184700BFE0
:10EAA000765F0F0008B520B1044940F27B2001F0E9
:10EAB00071FF0348BDE80840FFF78EBF765F0F0087
:10EAC00014600F0010B5044620B9044940F24320F9
:10EAD00001F060FF2368186810BD00BFEE5E0F00F4
:10EAE00000F00F0310F0800F10B51CB20AD0082BF5
:10EAF00004D909494FF4CC7001F04CFF074800EBF2
:10EB0000C40010BD082B04D903494FF4CF7001F0A5
:10EB100041FF0348F3E700BF765F0F00C085002088
:10EB20000886002070B50D460646FFF7D9FF04465B
:10EB300005604DB9730604D105494FF4E17001F049
:10EB400029FF0023636070BD6B681B68FAE700BF94
:10EB5000765F0F0001280AD006D3022809D00649A3
:10EB600040F2622001F016BF0448FFF735BF0448A9
:10EB7000FBE70448F9E700BF765F0F0004600F0071
:10EB800008600F000C600F0038B5831EDBB2062B47
:10EB900098BF194A194C98BFD25C2378A3F102039D
:10EBA000DBB288BF0022062B9ABF1349CB5C00233F
:10EBB0009342054603D0A2B1114802F0F7FB022DA3
:10EBC00001D0082D10D101232278022A01D0082A71
:10EBD0000CD101229A4202D053B103F001FC2570FE
:10EBE00038BD02F01FFCEAE70023EDE70022F1E761
:10EBF00003F0ECFBF3E700BF545E0F0059860020E2
:10EC0000345100202DE9F04F87B006AC002644F8BF
:10EC1000106D05468946924698466B6800225F68EB
:10EC2000294601232046B84740B98DF806000490D4
:10EC300004460746BE4203D805202AE00136ECE729
:10EC40006B680DF10602D3F804B02946012304A82D
:10EC5000D8476B680DF10702D3F804B029460123A9
:10EC600004A8D8479DF807304B459DF8063015D1CC
:10EC7000544511D1109A136088F8003088F801903B
:10EC80006A68023B5468294608F1020204A8A047BA
:10EC9000002007B0BDE8F08F0134E4B26A68023B9F
:10ECA000D2F804B02946002204A8D8479DF80630BF
:10ECB0001F44BFE72DE9F341054602F059FB20B997
:10ECC0002D4940F2313001F065FE2C4803F0C4FBC1
:10ECD0000446002837D12A4B18702A4B18602A4B5B
:10ECE000014618604822294804F02CFC482221469D
:10ECF000274804F027FC274B4DBB274A1D72C3E968
:10ED000000251A680AB9244A1A60002002F0AEFBF6
:10ED100018B1852801D0FDF76AFBDFF88080002458
:10ED200021464046FFF788FE651CEDB20746F8B95C
:10ED300002A90B2301F8043D1848FFF791FE044691
:10ED400008B103F0FFF9204602B0BDE8F08195E874
:10ED5000070083E80700D4E741460078FFF7E2FEAA
:10ED6000F1B23846FFF754FE01360028F4D1D7E758
:10ED700000262C46F4E700BF765F0F000DEA0E0078
:10ED8000598600205086002054860020C08500202F
:10ED900008860020B4850020A1F10E001C600F0041
:10EDA00010B503F0C7FA08B9082010BD03F0CAFA7D
:10EDB00004460028F8D1044802F073FB0028F4D080
:10EDC000FDF715FB2046F0E700600F0003F0D0B917
:10EDD00008B503F0C1FA20B1044940F2D13001F086
:10EDE000D9FDBDE8084004F001B900BF765F0F000F
:10EDF00008B503F0A7FA20B90A494FF4767001F07C
:10EE0000C9FD4FF08043D3F83824920704D5064853
:10EE1000BDE80840FFF7E0BDD3F83824D107F2D4AD
:10EE200008BD00BF765F0F0015600F0007B502A890
:10EE3000822300F8043DFFF7CFFD03B05DF804FB2B
:10EE40002DE9F341044620B93B4940F26A5001F0F4
:10EE5000A1FD636823B9384940F26B5001F09AFD77
:10EE600063681B6823B9344940F26C5001F092FD8D
:10EE700023681B6823B1304940F26D5001F08AFDD0
:10EE800003F060FA30B12C4940F2715001F082FD7C
:10EE9000002617E003F04EFA0028F9D1F3E70078D6
:10EEA000FFF71EFE036808F1010823B1112026E0D8
:10EEB0004FF000083E465FFA88F12846FFF7A8FDAC
:10EEC0000028ECD131462046FFF7B6FD771CFFB293
:10EED00005460028ECD129462046FFF7ADFD6E1C03
:10EEE000F6B28046D0B9154D134E2B68CBB902A9A6
:10EEF0000B232C60204601F8043DFFF7B1FD02B062
:10EF0000BDE8F08121460078FFF70CFEF9B24046DB
:10EF1000FFF77EFD01370028F4D1DCE700273546F6
:10EF2000F4E7A34204D1314640F2975001F032FD9C
:10EF30002B681D68D9E700BF765F0F005086002060
:10EF4000024B1878003018BF012070475886002007
:10EF500000F00F03072B10B5044604D803F07CFD26
:10EF6000204604F013F92046BDE8104004F0BCB878
:10EF700004F084B8014B1868704700BF5086002029
:10EF80002DE9F8430E4B1C6880460F46ACB194F84F
:10EF900008900026F5B24D4504D32046FFF792FDB8
:10EFA0000446F3E729462046FFF746FD037843452C
:10EFB00006F10106EED107B13D702046BDE8F883A9
:10EFC000508600201146FFF74BBD00F00F03082BC1
:10EFD00010B50C4608D8FFF783FD006820B1214624
:10EFE000BDE81040FFF73CBD102010BD38B5074B01
:10EFF0001C68054604B938BD29462046FFF730FD98
:10F000002046FFF75FFD0446F4E700BF508600206E
:10F0100038B5084B1C6805460CB9062038BD294692
:10F020002046FFF71DFD0628F8D12046FFF74AFDD0
:10F030000446F1E75086002038B504460D4603F03B
:10F0400054FA48B1054B1B78022B05D129462046BE
:10F05000BDE8384003F056BA082038BD5986002074
:10F0600038B504460D4603F040FA48B1054B1B780D
:10F07000022B05D129462046BDE8384003F0C8BA26
:10F08000082038BD5986002070B543689B68054646
:10F090000E4614469BB92B7AB34204D20F4940F274
:10F0A000F92001F077FCB4B931462846FFF7C4FCDB
:10F0B00046780546E1B28E4205D8002002E0984726
:10F0C0000628E8D070BD2846FFF7A2FC0078FFF7BD
:10F0D0003FFF0134EEE70720F4E700BF765F0F0043
:10F0E00070B54368DB6804460D4603B19847237A40
:10F0F000AB4204D20B494FF4467001F04BFC294659
:10F100002046FFF799FC467805460024E1B28E427E
:10F1100000D870BD2846FFF77BFC007803F0AEFFF7
:10F120000134F3E7765F0F0043681B6903B11847AA
:10F1300018467047F8B50D4B0D4E1C6804B9F8BD64
:10F14000277A0025E9B2B94204D32046FFF7BAFC7A
:10F150000446F3E700222046FFF796FF20B1314630
:10F1600040F26A7001F016FC0135EBE75086002092
:10F17000765F0F0070B5094B1C6804B970BD267A24
:10F180000025E9B2B142204603D3FFF79BFC0446B9
:10F19000F3E7FFF7A5FF0135F3E700BF5086002036
:10F1A00038B58C4B1B68054623B98B4940F2254086
:10F1B00001F0F0FB01F0D2FB052804D8864940F2AB
:10F1C0002C4001F0E7FB2C78092C20D023D8032C0D
:10F1D00000F0C08012D8012C00F0AA8040F291808B
:10F1E0000320FFF7D1FC0220FFF7E6FB2846FFF7DC
:10F1F000FDFE2846BDE83840FFF7E6BB052CF8D0F9
:10F20000C0F0B780062C00F0C380082C13D1204634
:10F21000FFF7D2FB99E0812C14D005D80F2CF6D043
:10F22000802C4AD00A2CF1E7832C52D027D3842C8F
:10F2300058D0852CDDD0684940F22650BDE83840D2
:10F2400001F0A8BB6548FFF7BFFB6448FFF7CEFE9F
:10F250000D20FFF7B1FBFFF78DFF00F08AF9604B3F
:10F260001B6853B95F4B187A00F0010003F02AF8CD
:10F270000120BDE83840FFF787BC0120F4E7FFF725
:10F2800079FF03F089FE0020FFF77EFC5648FFF768
:10F29000ADFE5548FFF798FB0E20FFF78DFB534B53
:10F2A0001B78023BDBB2062B3AD8514AD35C002BC9
:10F2B00036D0BDE8384002F0B5B84C4B1B78062B71
:10F2C00005D0072B01D0052B2AD10220D1E7082039
:10F2D000CFE7464B1B78032B22D103F0A9FEF8B1F0
:10F2E0000420C6E7414B1B78032B05D103F0A0FE99
:10F2F00010B10420FFF748FC03F03CF880B1062071
:10F30000B7E73A4B1B78032B01D0082B02D13948C1
:10F31000FFF746FF0020FFF74FFB314B1C6804B995
:10F3200038BD20462946FFF79BFB23685C68F6E75B
:10F33000FFF720FF00F014F90220FFF725FC20461C
:10F34000FFF73AFB2846FFF73FFB2846BDE8384069
:10F35000FFF74CBE254B1B78082B06D10220FFF788
:10F3600013FC03F047F80320EAE70520FFF70CFC45
:10F37000F9E70320FFF720FB1F48FFF725FB1E4896
:10F38000FFF734FE194B1B78062B9ED1072070E740
:10F39000A878FFF7A5FB0368044623B90E4940F29D
:10F3A000025001F0F7FA636823B90B4940F20350A9
:10F3B00001F0F0FA63682068294698470028AFD02A
:10F3C000A87800F00F03013B062BA9D8BDE8384010
:10F3D00003F006BB50860020765F0F0016600F001A
:10F3E00054860020B485002017600F005986002045
:10F3F000545E0F0018600F0019600F000020704766
:10F4000010B5044620B9044940F2432001F0C2FA85
:10F410002368186810BD00BFEE5E0F002DE9F04FA5
:10F420004B6887B080460C4693465BB90868FFF787
:10F43000E7FF38B9A5682DB9C8E90055284607B0D7
:10F44000BDE8F08FBBF1400F04D938494FF4CB70C1
:10F4500001F0A0FA03F026F9E76802905F453B4609
:10F4600028BF5B4601934FF0000904F110034E469C
:10F4700001250393019B002B31D0A368019A616899
:10F4800093429A4628BF924600292CD0029B5246AE
:10F49000981904F04CF800236360E268A368A2EBBB
:10F4A0000A02E260019AA3EB0A03A2EB0A02A3603C
:10F4B0000192564433B9B9F1000F03D02068FFF729
:10F4C0009FFF2060E368002B2ED0A368002BD1D1D2
:10F4D0002268B2B9626016B1B34588BF0025029BAD
:10F4E000C8E90036AAE7002BD7D02168029A4B68FA
:10F4F0000398D3F8049032445346C8474FF00109AB
:10F50000CBE70DF1180A4AF8083D21684B685B68A3
:10F5100000221F4650460123B84708B92061A9E7D9
:10F52000A3680133A360F0E71D46A3E768600F00FE
:10F53000084B1A7882420CD0052818BF064A18706A
:10F5400018BF137805481CBF23F002031370FFF7A0
:10F5500027BE704768860020848600202C600F003C
:10F5600008B50020FFF7F4FC8020BDE80840FFF755
:10F57000EFBC08B50020FFF7FBFC8020BDE8084089
:10F58000FFF7F6BC38B505460C4603F0F5FAA8427D
:10F5900003BFD4E90001034BC3E90001102008BFF9
:10F5A000002038BD888600207FB5C38893421D4661
:10F5B00028BF154693420E46144620D9802002F0FB
:10F5C0008FFFB4FBF0F303FB1040B0FA80F040096A
:10F5D00003900020CDE9016501F0A0F901A9802088
:10F5E000FFF72AFD044620B906498020FFF7CAFF2D
:10F5F0000446002001F0A2F9204604B070BD0020AE
:10F60000E6E700BF60600F002DE9F04F0C78062C94
:10F6100089B006460D4600F0498221D8022C52D00E
:10F6200003D8012C3DD0062454E0032C3DD0052CFA
:10F63000F9D10DF115008DF8144003F031FAAE4AFE
:10F64000002313609DF8153003F01F039346032B2E
:10F6500000F2C981DFE813F042007701BE01190111
:10F660000D2C00F0108211D80B2C00F001820C2C14
:10F67000D9D1A24B1B78012B04D0A14940F25140B3
:10F6800001F088F90020FFF753FF1CE00E2C00F07A
:10F690000282852CC7D1994B1B78032BC3D1042040
:10F6A00000E00320FFF744FFBDE79648FEF76CFE3D
:10F6B00030B1954B01221A60BFF36F8FBFF34F8FAC
:10F6C0008E4B1C780CB1002404E08D4940F2374089
:10F6D00001F060F9204609B0BDE8F08F26B98849ED
:10F6E00040F25D3001F056F99DF81530C3F3411535
:10F6F000002D40F0CA80DB099DF8161000F0B6809E
:10F70000062918D0082900F0A480002940F0BD8007
:10F710007E4C0222204603F015FF237843F00102BD
:10F7200022707B4A1278950744BF43F0030323708D
:10F73000022276490FE09DF81830022B11D0032BDE
:10F7400079D0012B40F0A180BDF81B30002B00F0D8
:10F75000B080704912220DF11500FFF725FF044615
:10F7600039E0BDF81B70002F00F0A380092F28BFDF
:10F770000927FFF7FFFBDFF888A104464FF00908CF
:10F7800074BB624C64493A46204603F0D0FE2571B2
:10F79000A4F80280FFF7D4FB18B1E37943F020030B
:10F7A000E371FFF7E7FB5D4BC3E900049F60BDF821
:10F7B0001B20DA60002001F0B1F859498020FFF7E2
:10F7C0004FFC044620B957498020FFF7DBFE044672
:10F7D000002001F0B3F8062C57D0002C69D060E06F
:10F7E000636823B9514640F2C62001F0D3F863683C
:10F7F0005B6823B9514640F2C72001F0CBF80DF108
:10F800002009002649F8146D019663685B680022A0
:10F810001E46214601234846B047019B40B9984403
:10F82000237A20461D44FFF7EBFDEDB20446A7E71F
:10F8300001330193E9E7BDF81B30002B39D0BDF847
:10F8400019109DF8170000F0C3F90146E8B10278DD
:10F8500081E72A4A1278052A03D12C4A1370012223
:10F8600067E7042A11D1294B1D70F8E701390829EF
:10F870000BD8DFE801F02C0A0E0A050A0A0A390043
:10F880001F4940F2813001F085F805A8FFF7C0FB61
:10F890009EE0BDF81730012BF7D1FFF751FB18B9E7
:10F8A0000F2403F066F915E7194A137843F00203B1
:10F8B0001370DBF80040002C00F0218103F05CF9AC
:10F8C000044600287FF4FFAE03F010F902E7BDF80C
:10F8D0001730012BD9D1FFF733FB0028E0D00C4AB9
:10F8E000137823F00203E3E7044B1B78043B012B5E
:10F8F0001AD90824D5E700BF888600206886002032
:10F9000068600F00908600205C70024094860020A2
:10F91000848600204C600F002D600F006C86002054
:10F92000F8600F0060600F009DF817302BB9FFF7EB
:10F9300021FC0420FFF7FCFDBBE7012B41D1FFF7C1
:10F94000F9FB0520F6E703A99DF81900FFF718FB5E
:10F95000064608B91024A4E705AA9DF80C10FFF785
:10F9600031FB062804467FF438AF9DF8152012F0CD
:10F97000600F96D1644B9DF80C1018789DF81630E6
:10F98000D50915D073B10A2B8BD10528B1D13046DA
:10F99000FFF7CAFB5D492A4608700DF11500FFF715
:10F9A00003FE15E00528A4D158490B800222F4E794
:10F9B0000B2B7FF476AF05289BD1BDF81730FF2BBA
:10F9C00001D907246DE79DF817203046FFF75CFB4F
:10F9D000044602E79DF81900040706D19DF815308A
:10F9E00013F0600F09D006245BE705A9FFF7EDFAD5
:10F9F000062804467FF4F1AEF0E79DF81620424B4E
:10FA00009DF819401B78012A1ED012D3032AEAD18F
:10FA100004F00F02072AE6D8BDF817100029E2D13A
:10FA2000052B02D0002A7FF464AF204602F0D8FFF5
:10FA30003FE7052B02D021077FF45BAF204602F0A1
:10FA4000EDFF32490880B1E704F00F02072ACAD857
:10FA5000BDF817100029C6D1052B02D0002A7FF46B
:10FA600048AF204602F0F8FF204603F08FFB20E766
:10FA7000254B1B78002B3FF426AE254940F24B4026
:10FA800000F088FF1FE64FF08043D3F83834DA07E0
:10FA90000AD50220F7E51C4B1B78012B04D81C4922
:10FAA00040F2654000F076FF0120ECE5CB78032BB7
:10FAB0003FF410AE8B785B0604D0154940F27440D9
:10FAC00000F068FF134EE8783368DBB10022326043
:10FAD00071689847044600287FF4E3AE336823B189
:10FAE000AB78002B7FF4EFADEEE60B4B1B68082BD9
:10FAF0007FF4E9AD094B1B68002B3FF4E4AD03F044
:10FB000035F8E7E50E24CCE66886002094860020D0
:10FB100068600F008886002030010010340100105A
:10FB200008B1402303600148704700BF948600205D
:10FB300070B54FF0805286B0D2F8A830D2F8A42029
:10FB400000926FEA83436FEA934302AD9BB2094A86
:10FB5000094E0D21284603F0FDFC0024284603F041
:10FB60002DFD844201D306B070BD2B5DA355013439
:10FB7000F4E700BF00610F00088A0020F8B5124BBF
:10FB800053F820502B7813B9AE1C3046F8BD002036
:10FB9000FFF7C6FF0D4F0646013D002315F8012F64
:10FBA0005C1C2AB96400E4B244F440743480ECE78D
:10FBB0001E2B03D93946E62000F0ECFEE3B22A788A
:10FBC00026F81320EAE700BFF0610F005A610F002A
:10FBD00008B9FFF7D3BF052807D8054A105C20B144
:10FBE000044B53F82030002BF3D10020704700BFA6
:10FBF00008620F00F0610F0038B50D46044620B9C9
:10FC000006494FF4887000F0C5FE237AAB4283BFEB
:10FC1000093405EB45056019002038BD24620F004A
:10FC200038B50D46044620B9064940F2431000F0AD
:10FC3000B1FE6378AB4283BFA07840190019002061
:10FC400038BD00BF24620F0008B50121FFF7D4FFC3
:10FC50000121FFF7E5FF007808BD00002DE9F8431A
:10FC60001746C94A99460B7A13700E4605469046C8
:10FC700020B9C64940F20F3000F08CFE2B68B3F576
:10FC8000517F00F0C58200F2CF8040F226329342CD
:10FC900000F0348262D840F21632934200F0F081D4
:10FCA00025D840F21332934200F0CF81B3F5457F5F
:10FCB0000AD2002B00F0B38140F21232934200F0DE
:10FCC000B98100202860B3E100F0CD8140F2153207
:10FCD0009342F6D100240FB12B793B550134022316
:10FCE0004C452B71C0F0CD8140F216339EE140F2BD
:10FCF0001932934200F0DD8114D840F2173293425A
:10FD000000F0CA81B3F5467FDBD100240FB12B7917
:10FD10003B55013400234C452B71C0F0CB8140F2A0
:10FD2000193383E1B3F5487F00F0DB8140F22132E3
:10FD30009342C6D100240FB12B793B55944B3046EA
:10FD40001978FFF759FF934B013418604C4503783D
:10FD50002B71C0F0D48140F2263367E140F2333298
:10FD6000934200F00982B3F54D7F38D2B3F54B7F53
:10FD700000F0DF811CD840F22732934200F0CA81A4
:10FD8000B3F54A7F9DD100240FB12B793B55814BB0
:10FD9000327D1B681B789A4204F1010440F0E28135
:10FDA00002234C452B71C0F0C5814FF44B733DE1EC
:10FDB00040F22D32934200F0C88140F22E3293423D
:10FDC0007FF47FAF00240FB12B793B550134002322
:10FDD000A1452B7100F2F0814FF44F7326E1B3F58A
:10FDE0004F7F00F0E88106D8B3F54D7F00F0D08159
:10FDF00040F23532E3E740F24232934200F0F081C4
:10FE000000F2FA8140F2413293427FF45AAF00246B
:10FE10000FB12B793B55013424234C452B71C0F095
:10FE2000E08140F2423301E140F25632934200F069
:10FE30005A826AD8B3F5537F00F01D8232D840F25F
:10FE40004932934200F0FE8115D840F24532934288
:10FE500000F0EB81B3F5527F7FF433AF00240FB194
:10FE60002B793B55013424234C452B71C0F0EB8199
:10FE700040F24933DAE040F24A32934200F0EE8138
:10FE800040F24B3293427FF41CAF00240FB12B7928
:10FE90003B550134B37D2B714C45C0F0ED814FF4DF
:10FEA0005373C3E040F25132934200F0038215D8FD
:10FEB00040F24F32934200F0EA81B3F5547F7FF471
:10FEC00000AF00240FB12B793B55013402234C4580
:10FED0002B71C0F0F08140F25133A7E040F2523272
:10FEE000934200F0F38140F2553293427FF4E9AE41
:10FEF00000240FB12B793B55013424234C452B7141
:10FF0000C0F0F28140F2563390E040F272329342F8
:10FF100000F0378242D840F25932934200F0FC811F
:10FF200015D840F25732934200F0E981B3F5567F7D
:10FF30007FF4C7AE00240FB12B793B550134B37D5C
:10FF40002B714C45C0F0E98140F259336EE040F22C
:10FF50006D32934200F0088240F26E3293427FF499
:10FF6000B0AE00240FB12B793B550B4B1978094BE0
:10FF70001868FFF755FE013403782B714C45C0F02B
:10FF8000018240F2723351E0D6860020C5620F0034
:10FF9000D5860020D8860020D786002040F2833204
:10FFA000934200F01382B3F5617F14D240F27732AE
:10FFB000934203D0B3F55F7F7FF483AE00240FB18B
:10FFC0002B793B5501344023A1452B7100F2FF8171
:10FFD00040F283332AE040F28932934200F00D82EE
:10FFE00040F28E32934200F00882B3F5617F7FF4D5
:10FFF00068AE00240FB12B793B55AB4B327D1B68AB
:02000002F0000C
:100000001B789A4204F1010440F0ED81336A4C45BB
:100010001B782B71C0F0F28140F2893306E008238F
:100020002B71B9F1000F05D140F212332B60012082
:10003000BDE8F8830FB12B793B700B23B9F1010FA9
:100040002B710ED840F21333F0E700240FB12B7957
:100050003B550134337D2B714C4505D34FF445732B
:10006000E4E70124F2E700240FB12B793B5501347A
:1000700002234C452B71FFF42EAE40F21533D5E729
:1000800000240FB12B793B55013402234C452B71D1
:1000900003D340F21733C9E700240FB12B793B5546
:1000A0000134737E2B714C45FFF430AE4FF4467330
:1000B000BCE700240FB12B793B557C4B0022013467
:1000C0001A707A4B1A7898F800309A4202D340F2AC
:1000D0009933ABE70923A1452B7103D84FF448733B
:1000E000A4E700240FB12B793B55013404234C4580
:1000F0002B71FFF420AE40F2213397E700240FB1BB
:100100002B793B55013400234C452B7103D340F22E
:1001100027338BE700240FB12B793B55624B1B68CB
:1001200001345B782B714C45FFF42EAE4FF44A73CB
:100130007CE700240FB12B793B55013402234C4559
:100140002B7103D340F22D3370E700240FB12B79CC
:100150003B550134737E2B714C45FFF434AE40F2B5
:100160002E3363E7B27D9A421FD10A234C452B718F
:1001700003D340F2333359E700240FB12B793B55B9
:10018000013400234C452B7103D34FF44D734DE7DD
:1001900000240FB12B793B55013400234C452B71C2
:1001A000FFF411AE40F2353340E7414940F23930B7
:1001B00000F0F0FB0BE600240FB12B793B553A4BD6
:1001C000327D1B681B789A4204F1010440F0BC8028
:1001D00005234C452B71FFF41BAE40F2413325E75C
:1001E00000240FB12B793B55013400234C452B7172
:1001F00003D340F2433319E700240FB12B793B5569
:10020000013410234C452B7103D34FF451730DE788
:1002100000240FB12B793B55013401204C45287146
:1002200004D340F245332B6002E700240FB12B7951
:100230003B55013405234C452B71FFF410AE4FF4B0
:100240005273F3E600240FB12B793B5501340120A2
:100250004C45287103D340F24A33E4E700240FB140
:100260002B793B55013403234C452B71FFF40EAE23
:1002700040F24B33DAE600240FB12B793B550134C1
:1002800004234C452B7103D340F24F33CEE60024B8
:100290000FB12B793B55013424234C452B71FFF4CE
:1002A00011AE4FF45473C1E6D8860020D5860020E5
:1002B000C5620F0000240FB12B793B550134022396
:1002C0004C452B7103D340F25233AFE600240FB1FB
:1002D0002B793B55013405234C452B71FFF409AEB6
:1002E00040F25533A2E600240FB12B793B5501347F
:1002F00006234C452B7103D340F2573396E6002476
:100300000FB12B793B550134337D2B714C45FFF4F4
:1003100012AE4FF4567389E600240FB12B793B558A
:1003200001343E4B1B685A783D4B1A703D4B0022FE
:100330001A703C4B1A783A4B1B789A420DD33A4AC2
:10034000137801331370BCE6B27D9A42E9D0374985
:1003500040F2623000F01EFBE3E70723A1452B715A
:1003600003D840F26D3361E600240FB12B793B5581
:10037000013405234C452B71FFF4F4AD40F26E338C
:1003800054E600240FB12B793B55244B327D1B687A
:100390001B789A4204F1010407D103234C452B71C9
:1003A000FFF40DAE40F2773340E6B27D9A4207D1BA
:1003B00002234C452B71FFF402AE4FF45F7335E618
:1003C0001A494FF4607000F0E5FAFCE500240FB123
:1003D0002B793B55013400234C452B71FFF40AAEB9
:1003E0004FF4617322E6B27D9A4210D100234C454E
:1003F0002B7103D340F28E3318E600240FB12B7912
:100400003B550134074A13780133137091E70749CC
:1004100040F2923000F0BEFAF4E700BFD886002028
:10042000D4860020D7860020D5860020C5620F0024
:1004300010B5044618B906495F2000F0ABFA2368EE
:100440001BB90349602000F0A5FA20680C3010BDEC
:10045000C5620F004360CA699A420ED38A6902607E
:100460008A69C8691A448A610A6FC01A1A44C86145
:1004700000300A6718BF0120704701F128020260AE
:100480008B670020704700000149522000F082BABB
:10049000C5620F0070B50D46044608B9FFF7F4FFBA
:1004A000E36923B129462046BDE87040184770BD76
:1004B00010B5044608B9FFF7E7FF2046FFF7B8FF7D
:1004C0000023C0E91B33C0E91D33838283610362CB
:1004D00000F12803836610BD2DE9F0430E4689B074
:1004E000054620B99E4940F2DD2000F053FA26B9B6
:1004F0009B4940F2DE2000F04DFA33780E2B21D8D4
:10050000DFE803F00B080B0B2010BE202008200BA7
:100510000B0B0B002846FFF7CBFF0024204609B049
:10052000BDE8F08325B98E494FF4E47000F032FA4B
:100530007278D1094FEA52133AD013F0030303D073
:10054000012B25D00624E9E702F01F02012AF9D188
:10055000B478062CF6D105A80393FFF7E1FA03ABB4
:10056000F27831790093074603462846FEF74AFBA6
:100570000528D3D0039B3F2B03D97949C92000F02C
:1005800009FA039A3946701CFFF70EF80446C5E7CE
:100590000DB9FFF779FF2846FFF74AFFB378212B03
:1005A000D0D1B6F80720072ACCD100F10C01EAE738
:1005B000012BC7D10DB9FFF767FF2846FFF738FFBA
:1005C000B378202B074632D0222BBBD1B6F80730A8
:1005D000002BB7D1037DB6F80340848203F00103FA
:1005E00004F00104A34298D0A4B2002C0CBF032154
:1005F00002212846FFF74EFF002C8ED1012128460C
:10060000FFF7FAFA2146FFF70BFB007802F0A6FB92
:100610002846FFF719FB02F0A1FB07F12803BC6194
:100620003C62C7E91B44C7E91D44BB6676E7B6F8E0
:100630000730072B86D10DB9FFF726FF2846FFF7B5
:10064000F7FEB3780370B6F807304370831C0024BC
:100650000593437806932046079400F05FF92046FF
:1006600005A9FEF7E9FC044630B93E4B03A9CDE9E4
:100670000335FEF787FF0446002000F05FF94DE7E1
:1006800000212846FFF7B8FA0021FFF7C9FAB3782E
:1006900002789A423FF441AF1B06F4780AD524B1A0
:1006A000032C3FF43AAF032438E701212846FFF733
:1006B000F1FE33E7012C3FF430AFF1D20DB9FFF773
:1006C000E3FE2846FFF7B4FE06462846FFF7BCFACD
:1006D000254BCDE90536F7698046B7B9336F346AE3
:1006E000F766C6E91C736CB106F1200103C906F177
:1006F000180383E80300376205A94046FEF7B0FC03
:10070000044600E0B4610021D0E7D6F87890B069E3
:100710004F4528BF4F4606F128043A46214602F0CD
:1007200006FF336F3B447367A9EB0703F366336A35
:1007300000223C443267B466002B3BD006F120090E
:1007400099E8030006F1180787E8030014463262AF
:10075000F36EB06953B9B469002CCDD1D3E700BFB3
:10076000C5620F00B9070F0055040F00F269B16EA2
:100770009A4215D802F0DBFEF369F26E7367D21A63
:10078000F266B26E1A44B26600212846FFF782FE76
:10079000336A7BB199E8030087E803003462D7E746
:1007A0001A4602F0C4FEF26EF36932679B1AF361D7
:1007B000B3691344B361CEE710B5044660B9084687
:1007C000FFF736FE0378202B08D1811C07220C305E
:1007D00002F0ADFE204610BD0320FCE70620FAE73C
:1007E0007FB5144606460D46FFF722FE838ADA07D8
:1007F00013D501213046FFF7FFF90021FFF710FA6A
:10080000A30600780CBF0123002301A9CDE9015400
:100810000393FEF711FC04B070BD0820FBE7000055
:100820002DE9F341804616460F4621B9294940F289
:10083000D63000F0AFF84046FFF7FAFD838ADB07B9
:10084000044644D5002000F069F8A569002D36D192
:10085000E36EB34212D33246A16E384602F067FE11
:10086000E36E66679B1BE366A36E3344A3660020BA
:1008700000F064F8284602B0BDE8F081C4E90676CD
:100880004046FFF7E1F9144BE26E0646CDE900342D
:1008900062B1A16EA06902F04AFEE36EE269D21A6B
:1008A000E261A269C4E91B531A44A2616946304659
:1008B000FEF7D6FB002814BF05469225D7E7236A2A
:1008C0001BB9C4E908769225D1E71125CFE70825A1
:1008D000D0E700BFC5620F0055040F0072B6024A90
:1008E0001368013313607047DC860020034A1368E5
:1008F000013B136003B962B6704700BFDC8600207D
:10090000EFF30583C3F308032BB9EFF31480C0435F
:1009100000F00100704701207047000008B5FFF7A4
:10092000EFFF012803D00449432000F033F8BDE86D
:100930000840FFF7D3BF00BF63630F0008B5FFF7A0
:10094000DFFF012803D00449512000F023F8BDE85F
:100950000840FFF7CBBF00BF63630F00EFF30583D1
:10096000C3F308038BB1103B5AB2002AADBF02F1AA
:10097000604303F00F03064A03F56143B4BFD05C44
:1009800093F800034009C0B270470F20704700BFC2
:1009900014ED00E007B5ADF8000001916A460021B2
:1009A00044F20200FBF720FD03B05DF804FB0023D6
:1009B000C0E90232C0E900118B881A440261B1F922
:1009C00006301A4442610888003018BF0120704781
:1009D00010B5426811880346002939D002F1100190
:1009E0004160148A2CB9C2680168FFF7E0FF204615
:1009F00010BD9078118900F03004302C1BD1947C0C
:100A000004F03004302C16D190881969091A196144
:100A10000021907810F0300F02BF98680130986084
:100A2000908A0844196901441961B2F916201144E9
:100A300059610120DCE700F0F004202C02D150893C
:100A40004143E6E700F0C000802808BF0421E0E74A
:100A50000846CDE770B5456804460E4663681A88B7
:100A6000B24204D19B7803F00F03082B07D1204634
:100A7000FFF7AEFF6368AB42F0D1002070BD0120EC
:100A8000FCE743681A44426011B101399A4201D12E
:100A90000120704713F8010B01F8010FF6E710B5BC
:100AA000836804460BB9002010BD036801229847F3
:100AB0000028F8D0A368013BA360F5E72DE9F341D6
:100AC0000F460DF107018046FFF7E9FF064620B902
:100AD0000026304602B0BDE8F0819DF807402206AE
:100AE00013D504F07F0407250DF107014046FFF7F9
:100AF000D6FF0028ECD09DF8072002F07F03AB4022
:100B00001C43130605F1070501D43C60E1E7232DE2
:100B1000EAD1DDE770B54268927802F00F0108294A
:100B200086B003461FD103691C6800260CB906B0C5
:100B300070BD236826739D68626829466846FFF782
:100B400036FF6368049304F10C030593AB7803F05C
:100B5000C003802B08BF231D684608BF0493FFF71E
:100B6000D9FFA468E2E712F0C00120D102F0300002
:100B700010280ED15A6911705A6818699378D46890
:100B800003F00F03072B09D10146204600F017F8A8
:100B9000CDE79006F0D55B691980C8E71289214638
:100BA00014B102F0C4FCC2E702F0CCFCBFE780291C
:100BB000BDD10069002192060160B8D5EBE77FB591
:100BC0000A4601466846FFF7F2FE30B16846FFF775
:100BD000A1FF6846FFF7FCFEF7E707B05DF804FBEE
:100BE00030B5044685B01546A9B90268114B9A4242
:100BF00011D0102D06D82A4669462046FFF7F0FF8F
:100C000005B030BD102269462046FFF7E9FF0028F5
:100C1000F6D0103DEDE7A368AB4201D20020EFE72C
:100C200023682A46204698470028F7D0A3685D1B12
:100C3000A560E5E7830A0F00F7B50E4601A9074650
:100C40001546FFF73BFFA8B1019A0123D3184FF0D7
:100C5000000404D2B17801F0C001802901D12046FE
:100C600008E031899942FAD329463846FFF7B8FFA0
:100C7000019BEC5403B0F0BD73B50E4601A90546C7
:100C80001446FFF71BFFB8B1019BB3F5803F07D2B5
:100C900002229A1804D2B17801F0C001802901D152
:100CA000002009E031899142FAD321461A4621F801
:100CB000023B2846FFF794FF02B070BD10B5034C0D
:100CC00082600022C0E90041C26010BD830A0F00AB
:100CD0002DE9F04F824685B00D464FF000084FF0E9
:100CE000000900240DF10F015046FFF7D8FEF8B1BE
:100CF0009DF80F1001F07F025FFA82FB4FF0000CAD
:100D0000CDE900BC009AA4F1200CC4F1200322FA22
:100D100003F302FA0CF71F431346A34048EA030803
:100D20000B0649EA070904F1070404D4C5E9008960
:100D300005B0BDE8F08F462CD4D10020F8E773B59C
:100D40000D4669461446FFF7C3FF68B12B89082B8F
:100D50000CD1DDE90056C4E90056DDE90023B342B9
:100D600006BFAA420120002002B070BD042B05D1AD
:100D7000DDE90001206005460026EEE7022B03D1E5
:100D80000098208085B2F7E7012B05D1DDE900014D
:100D9000207000F0FF05EFE70020E5E737B50D46CE
:100DA00069461446FFF794FF30B12A89082ADDE925
:100DB000003103D1C4E9003103B030BD042A184624
:100DC0004FEAE37108D123601A460B468B4206BFF7
:100DD000824201200020EFE7022A04D11BB22380C7
:100DE0001AB2D317F2E7012A03D15BB223705AB2C9
:100DF000F7E70020E0E7F7B50C46002119702170F5
:100E0000116001A9074615461E46FFF757FE30B987
:100E1000BB6813B901233370002003B0F0BD019902
:100E20000029F7D0CB0801F007012B602170F4E70F
:100E300013B5044605291FD8DFE801F0030F151E7E
:100E40001E1C012201A92046FFF7CAFE18B19DF918
:100E50000430002BF5DB02B010BD08220021204633
:100E6000FFF7BEFEF7E701A9FFF728FE0028F2D042
:100E7000019AF3E70422F1E70020ECE773B50D4691
:100E800001A90446FFF71AFE064618B900263046A7
:100E900002B070BD94E80F0085E80F0001998A4206
:100EA000F4D3A960A3685B1AA360F0E72DE9F041D1
:100EB0005568AB7813F0C00E88B006468C461446D1
:100EC00004D0BEF1400F6AD0002546E003F00F02C7
:100ED0005D4903F03003102B51F822701DD006D865
:100EE000002BF1D122692946B847054635E0202B71
:100EF00019D0302BE8D1636929881980072A0AD1D3
:100F0000636820691A89714602F01CFB63682169D5
:100F1000D868FFF754FE22693EE0636901221A7027
:100F200022696168E0E7BCF1020FD4F8148027D190
:100F3000042A25D804A9FFF7A1FF05460028C3D03D
:100F4000069B2BB16168B8F800304A899A4208D8EC
:100F5000059B7360069B002BB6D1284608B0BDE800
:100F6000F0810889226903FB002204A8B84728B150
:100F7000B8F800300133A8F80030E1E70546E7E7AC
:100F8000B8F8003021692A8903FB02126989994265
:100F90009AD90133A8F8003061683046A4E7176990
:100FA0003B6807F1040813B9FFF742FF9DE70229E8
:100FB00013D104A9FFF762FF002885D03B68616860
:100FC000424604A89847054600283FF47DAF069B9B
:100FD000002BF3D1059B7360BFE701292BD009D308
:100FE00005297FF471AF04220DEB0201FFF7F8FD34
:100FF000042525E0002501AB591901350B2D3FF4DF
:1010000063AF01223046FFF7EBFD00283FF45CAFF1
:1010100001AB2B4413F9013C002BECDB0B4B04938D
:1010200001ABCDE90535002307933B686168424673
:1010300004A8984759E7082201A9FFF7D1FD082520
:101040000028EBD140E700BFF4630F00830A0F00D4
:101050002DE9F04F91B00446002604A8CDE90266C0
:10106000FFF7A5FCA3683BBBDDE9053404A89D7828
:10107000FFF7AEFC0028F7D115F0300F03D1059B28
:101080001B8803B10134002C00F0A9806309002201
:1010900002A9934240F09C8010AA02EB830304F063
:1010A0001F04C4F120044FF0FF3053F8383CE040F7
:1010B000C31A584258410DE00DF1030301AA0DF186
:1010C00002012046FFF797FE38B99DF80330002B48
:1010D000CAD1002011B0BDE8F08F019904A8FFF734
:1010E000B9FC002850D1019BB3427FD3059D059ADE
:1010F000937803F00F03082B73D004A8FFF768FC64
:10110000059B9D42F3D14FF0FF36019FB7426DD34F
:10111000089B9DF80290D4F808801D684FF0010AE2
:10112000A368002D5FD098459CD12B68D3F800B000
:10113000BBF1000F08D04B463A4629462046D84717
:101140000028C6D0AD68EBE7D3F808B0BBF8003094
:101150009F42F7D16A6859460AA8FFF728FC6B68D6
:101160000E9305F10C030F939BF8023003F0C003BC
:10117000802B04BF2B1D0E930AAA85F80CA04946AC
:101180002046FFF793FEDBE7059B9B7813F0300FBB
:101190000FD1069A3F2A0CD8510910AB03EB8101FD
:1011A00002F01F020123934051F8382C134341F8F9
:1011B000383CE5689DF802201DB104AB019920463A
:1011C000A84704AA9DF802102046FFF76FFE12E020
:1011D00051F8225001357FF47DAF013259E70120EB
:1011E00078E7168891E798457FF43CAF9DF80210A8
:1011F0002046FFF71DFE00287FF434AF69E770B585
:101200000C460646154611462046FFF7D8FC2A46EE
:1012100021463046BDE87040FFF71ABFF0B585B0F3
:101220000C46CD68694607461646FFF727FE68B1AB
:10123000E06858B1A37803F03003202B32462946EA
:10124000684605D1FFF7DBFF019B7B6005B0F0BD71
:10125000FFF7FEFEF8E72DE977480E466946FFF7EF
:1012600037FD88B1DDE90023002502F001045FEAC3
:10127000530C4FEA320B54EA050308D06FEA0B0215
:101280006FEA0C03C6E9002303B0BDE87088C6E925
:1012900000BCF9E737B50D4669461446FFF7DBFF9A
:1012A00068B12B89082B0CD1DDE90001C4E90001EC
:1012B000DDE900238B4206BF82420120002003B0FB
:1012C00030BD042B03D100982060C117F0E7022B3A
:1012D00004D1BDF90000208000B2F6E7012B04D153
:1012E0009DF90000207040B2EFE70020E7E713B55A
:1012F00004220C460DEB0201FFF772FC08B1019BC2
:10130000236002B010BD1146FFF7F1BF13B50822EC
:101310000C466946FFF764FC18B1DDE90023C4E917
:10132000002302B010BD1146FFF7F0BF38B5084CDE
:1013300004F108030546002818BF1C4623682BB19A
:101340001A6822605B6828469847F7E738BD00BFF7
:10135000E886002020B9054B01225A70FFF7E6BF4E
:10136000012802D1014A9070F8E77047E08600201A
:10137000014B1878704700BFE086002038B5094C53
:1013800023786BB908486360A3602361E36000F0D1
:1013900093F8054600F0A6F801232370284638BDCF
:1013A0008525FBE7E086002055130F0038B51B4C60
:1013B0002378054623B91A494FF49370FFF7EAFAE8
:1013C000637803F0FF00ABB115B16B68002098475C
:1013D0000020FFF7A3FA6368002001336360FFF782
:1013E000ADFA6368C3B90E494FF4A170BDE8384047
:1013F000FFF7D0BAFFF792FA25B1A26813463BB9BE
:101400002A60A5606368002BE5D100F08DF8E2E763
:101410009D42F7D01B68F2E738BD00BFE086002090
:1014200018640F0038B50F4C237823B90E4940F2E9
:101430004710FFF7AFFA636823B90B494FF4A47064
:10144000FFF7A8FA0020FFF769FA6368013B6360C1
:10145000656815B900F086F865700020BDE8384071
:10146000FFF76CBAE086002018640F0010B5074C37
:1014700023784BB9064B002808BF184600F0D2F875
:1014800008B90123237010BD8520FCE7F4860020F5
:10149000A3640F0008B500F002F9BDE8084000F0B1
:1014A00005B910B50446FFF7F5FF204600F0E6F851
:1014B00000F0EEF8002010BD10B5044618B9074939
:1014C000A020FFF767FA064B187920B901221C60AB
:1014D0001A71587110BD8520FCE700BFA4640F008D
:1014E000F886002008B50C4B1B791BB90B49B920B5
:1014F000FFF750FA0A4B1A68D2075FBFC02283F881
:10150000002301221A604FF080420123C2F81835EF
:10151000044A137008BD00BFF8860020A4640F00C1
:1015200000E100E0158A002007B50B4B1B791BB9C1
:101530000A49FB20FFF72EFA094B00221A601B68AC
:101540000193019B4FF080430122C3F804231A60EA
:1015500003B05DF804FB00BFF8860020A4640F0010
:101560000001004010B50B4C227922B90A4940F223
:101570000310FFF70FFA094B01221A604FF0804267
:10158000D2F80C3403F00113B3F1011FF8D000239B
:10159000637110BDF8860020A4640F0004000040B1
:1015A00007B5154B1A687AB100221A601B680093C0
:1015B000009B4FF080430122C3F808230F4B58795A
:1015C00010B95A711B6898470D4B1A6882B10022F6
:1015D0001A601B680193019B4FF080430222C3F8FD
:1015E0000823064B1B68012003B05DF804EB184785
:1015F00003B05DF804FB00BF00010040F886002046
:101600000401004000F1804382B01A68002A14BF30
:101610000120002004D000221A601B680193019B66
:1016200002B0704710B5044618B911497020FFF791
:10163000B1F9104B1A78C2B922784FF08041C2F349
:101640004002C1F88025227802F00102C1F8782515
:10165000094A1168C9075FBFC02182F80013012140
:10166000116001221A70002010BD8520FCE700BF28
:101670002D650F00168A002000E100E0034B0022D8
:101680001A60026802B11A60704700BF0887002024
:101690004FF080434FF46072C3F8042370474FF05B
:1016A00080434FF46072C3F808237047014B002257
:1016B0001A6070470887002070B54FF08043D3F858
:1016C000044366070ED54FF48470FFF79BFF48B1C3
:1016D000334D2A6822B933494FF48A70FFF75AF91B
:1016E0002B689847A5060FD54FF48A70FFF78AFF3D
:1016F00050B12D4D2A6822B92A4940F21D10FFF73A
:1017000049F92B680020984760060FD54FF48C707C
:10171000FFF778FF50B1244D2A6822B921494FF4D0
:101720009270FFF737F92B680120984721060FD5F3
:101730004FF48E70FFF766FF50B11C4D2A6822B936
:10174000184940F22D10FFF725F92B680020984723
:10175000E2050FD54FF49070FFF754FF50B1134DD1
:101760002A6822B90F494FF49A70FFF713F92B68D2
:1017700001209847A30511D54FF49270FFF742FF5F
:1017800060B10A4C226822B9064940F23B10FFF7CB
:1017900001F923680220BDE87040184770BD00BF02
:1017A000008700202D650F00048700200887002097
:1017B00008B5FFF781FFBDE80840FFF7F1BE000064
:1017C000B0F5000F10B5044603D306499020FFF78B
:1017D000E1F8054A91689368CB1A23F07F43A3424E
:1017E000F9D310BDB6650F0010E000E070B50B4DE9
:1017F0000B4C2A68B2FBF4F10A4AB2FBF1F28242C6
:10180000064603D208499B20FFF7C4F82868B0FBBE
:10181000F4F07043BDE87040FFF7D2BF3C510020A8
:1018200040420F00FFFF7F00B6650F002DE9F34730
:101830000446154606790F4619B94E494A20FFF766
:10184000A9F81DB94B494B20FFF7A4F84A4A0C23CD
:1018500003FB062390461B7A002B40F08880236808
:10186000464A93420FD002F5805293420BD002F5C4
:101870008052934207D002F58032934203D002F5A2
:101880008052934202D1BB78032B03D939495F20A0
:10189000FFF780F80C23734308EB030248F803506A
:1018A0007B68536000210D4660792368CAB290427C
:1018B00001F1010153D897F803901D0BB9F1070FFF
:1018C0004FFA85FA03D92E496B20FFF763F8BAF176
:1018D000000FAEBF0AF1604305F00F03294A2A4802
:1018E0004FEA49195FFA89F9AABF03F5614302F883
:1018F000039083F8009323681B0B59B24909012216
:1019000003F01F0302FA03F340F8213020687B78CC
:10191000D0F8041503F0030321F003010B43C0F8D2
:1019200004352068BB78D0F8081503F0030321F0D4
:1019300003010B43C0F8083520683B78D0F8101538
:1019400003F00F0321F00F010B43C0F810350C23F7
:1019500003FB06860020327202B0BDE8F0879200D9
:1019600002F5A0729D509B580193019B9CE70820B3
:10197000F2E700BF41660F000C87002000800040A6
:10198000CA660F0014ED00E000E100E038B50B4C32
:1019900002790C2101FB02420546127A012A03D08A
:1019A00007498F20FEF7F6FF2B6801221A602B797A
:1019B0000C2202FB034302221A7238BD0C8700205E
:1019C00041660F0038B50A4C02790C2101FB024236
:1019D0000546127A1AB907499720FEF7DBFF2B68F4
:1019E00001221A612B790C2101FB03431A7238BDC5
:1019F0000C87002041660F0038B503681B0B5AB2F4
:101A00000121520903F01F0301FA03F320320C49AC
:101A100041F8223003680025D3F80022C3F80052B1
:101A200003684FF0FF320446C3F80823FFF7CAFFEC
:101A30002379044A0C2101FB03231D7238BD00BF2A
:101A400000E100E00C87002010B5084A03790C2162
:101A500001FB032304461B7A1BB90549B320FEF79B
:101A600099FF23680122DA6010BD00BF0C870020B7
:101A700041660F0073B54FF480348C4005688BB11C
:101A800001F150039B000026EE50EB580193019B9F
:101A90000368C3F80443036801F5A87143F82120E3
:101AA00002B070BDC5F80843F5E7F0B407689DF8CB
:101AB00010C0D7F8004240F201158D4024EA050419
:101AC000C7F800420568D5F800422343C5F8003244
