:02000002E0001C
:10C0000000000420B5C20E00DDC20E00DFC20E002B
:10C01000E1C20E00E3C20E00E5C20E000000000007
:10C02000000000000000000000000000E7C20E0059
:10C03000E9C20E0000000000EBC20E00EDC20E00CF
:10C04000D9180F00EFC20E00F7160F00EFC20E0056
:10C05000EFC20E00EFC20E00EFC20E00EFC20E00E4
:10C06000EFC20E0081180F00EFC20E00EFC20E00EB
:10C07000EFC20E00EFC20E00EFC20E00EFC20E00C4
:10C08000C9190F00EFC20E00EFC20E00EFC20E0082
:10C09000EFC20E00EFC20E00EFC20E00EFC20E00A4
:10C0A000EFC20E00EFC20E00EFC20E00EFC20E0094
:10C0B000EFC20E00EFC20E00000000000000000002
:10C0C000EFC20E00EFC20E00EFC20E00EFC20E0074
:10C0D000E1190F00EFC20E00EFC20E00FD160F00B7
:10C0E000EFC20E00EFC20E0085360F000000000008
:10C0F00000000000EFC20E0000000000EFC20E00C2
:10C10000000000000000000000000000000000002F
:10C11000000000000000000000000000000000001F
:10C12000000000000000000000000000000000000F
:10C1300000000000000000000000000000000000FF
:10C1400000000000000000000000000000000000EF
:10C1500000000000000000000000000000000000DF
:10C1600000000000000000000000000000000000CF
:10C1700000000000000000000000000000000000BF
:10C1800000000000000000000000000000000000AF
:10C19000000000000000000000000000000000009F
:10C1A000000000000000000000000000000000008F
:10C1B000000000000000000000000000000000007F
:10C1C000000000000000000000000000000000006F
:10C1D000000000000000000000000000000000005F
:10C1E000000000000000000000000000000000004F
:10C1F000000000000000000000000000000000003F
:10C2000010B5054C237833B9044B13B10448AFF390
:10C2100000800123237010BDB051002000000000F9
:10C22000B0450F0008B5034B1BB103490348AFF3FA
:10C23000008008BD00000000B4510020B0450F0090
:10C24000154B002B08BF134B9D46A3F5803A0021E8
:10C250008B460F461348144A121A07F090FA0F4BF8
:10C26000002B00D098470E4B002B00D098470020A1
:10C27000002104000D000D48002802D00C48AFF347
:10C28000008007F025FA2000290005F0EDFC07F0FA
:10C290000BFA00BF000008000000042000000000AE
:10C2A00000000000B0510020CC8A002000000000F7
:10C2B000000000000649074A074B9B1A03DD043BB8
:10C2C000C858D050FBDC05F0EDFBFFF7B9FF0000CC
:10C2D000E0450F0000510020B0510020FEE7FEE7CE
:10C2E000FEE7FEE7FEE7FEE7FEE7FEE7FEE7FEE726
:10C2F0002DE9F0471A4C80461E462046194B6360D4
:10C300008946174605F032F8A8B9174D2560B8F1EF
:10C31000000F1ED0B9F1000F05D12368AB420CD03D
:10C3200048F2025007E063684A465B68414620468F
:10C3300098470028F1D0BDE8F08762683168D3687B
:10C34000994209D39368064832463946BDE8F0471A
:10C35000184748F21050EEE748F21450EBE700BFE0
:10C36000CC51002070400F006E52464810B5064B6D
:10C37000002253E8001F01EA020043E8000494F0A1
:10C38000000FF6D110BD00BF4852002013B5134B6B
:10C390000124D3F8802004FA01F10A43C3F8802075
:10C3A000D3F88420114002060DD551B906228DF82C
:10C3B00004208DF806008DF80710D3F8883001A806
:10C3C000984702B010BD0029FBD106228DF8042049
:10C3D0008DF806008DF80740EFE700BFCC51002034
:10C3E000704707B5084B002202A8019283F88C2001
:10C3F00083F88D20012200F8042DD3F88830984767
:10C4000003B05DF804FB00BFCC510020034A0023B9
:10C410001360034A82F88E30704700BF1C7C0240D4
:10C42000CC510020054B1B68082B05D1044B186824
:10C43000003018BF01207047002070473001001005
:10C440003401001008B5FFF7EDFF80F00100C0B225
:10C4500008BD00F1804000F51C3001230360BFF3EC
:10C460006F8FBFF34F8F704708B5FFF7EBFF58B1E1
:10C47000EFF3108272B64C20FFF7EBFF4C20FFF772
:10C48000E8FF82F3108808BD4C20BDE80840E0E7D3
:10C4900000F18040002382B0036003680193019B98
:10C4A00002B0704708B500F180431B68002B14BF31
:10C4B0000122002201D0FFF7EBFF104608BD50E833
:10C4C000002F02EA010340E8003C9CF0000FF6D187
:10C4D0001046704738B5084C04F10803054600289B
:10C4E00018BF1C4623682BB11A6822605B68284677
:10C4F0009847F7E738BD00BF6452002020B9064BCB
:10C50000012283F89120E5E7012803D1024A82F84D
:10C510009200F8E7704700BFCC51002010B50B68BF
:10C520009A684B680024C0E90243C0E9002294885D
:10C5300023440361B2F90640234443614B6803611D
:10C5400001F10C034361937803F0C003802B04BF17
:10C550000431016110BD43681A44426011B10139D0
:10C560009A4201D10120704713F8010B01F8010F25
:10C57000F6E710B5836804460BB9002010BD0368C8
:10C58000012298470028F8D0A368013BA360F5E793
:10C590002DE9F04F824685B00D464FF000084FF070
:10C5A000000900240DF10F015046FFF7E2FFF8B13A
:10C5B0009DF80F1001F07F025FFA82FB4FF0000C34
:10C5C000CDE900BC009AA4F1200CC4F1200322FAAA
:10C5D00003F302FA0CF71F431346A34048EA03088B
:10C5E0000B0649EA070904F1070404D4C5E90089E8
:10C5F00005B0BDE8F08F462CD4D10020F8E72DE936
:10C60000F3480F4669461646FFF7C2FFA8B1DDE9B9
:10C6100000BC00230BF001025FEA5C054FEA3B041B
:10C6200013433B8919BF6FEA040B6FEA050CA3465D
:10C63000AC46082B04D1C6E900BC02B0BDE8F088C6
:10C64000042B09D1C6F800B05A46D317634506BF7C
:10C650005A4501200020F0E7022B04D10FFA8BF39A
:10C6600033801AB2F1E7012B04D14FFA8BF3337008
:10C670005AB2EAE70020E0E773B50D466946144672
:10C68000FFF786FF68B12B89082B0CD1DDE9005636
:10C69000C4E90056DDE90023B34206BFAA420120E7
:10C6A000002002B070BD042B05D1DDE9000120603F
:10C6B00005460026EEE7022B03D10098208085B2C4
:10C6C000F7E7012B05D1DDE90001207000F0FF053F
:10C6D000EFE70020E5E737B50D4669461446FFF75A
:10C6E00057FF30B12A89082ADDE9003103D1C4E9B6
:10C6F000003103B030BD042A18464FEAE37108D177
:10C7000023601A460B468B4206BF8242012000205E
:10C71000EFE7022A04D11BB223801AB2D317F2E743
:10C72000012A03D15BB223705AB2F7E70020E0E799
:10C730002DE9F3410F460DF107018046FFF719FF80
:10C74000064620B90026304602B0BDE8F0819DF8CB
:10C750000740220613D504F07F0407250DF10701D9
:10C760004046FFF706FF0028ECD09DF8072002F0B6
:10C770007F03AB401C43130605F1070501D43C6061
:10C78000E1E7232DEAD1DDE773B50D4601A90446A3
:10C79000FFF7CEFF064618B90026304602B070BD3E
:10C7A00094E80F0085E80F0001998A42F4D3A9604C
:10C7B000A3685B1AA360F0E730B5044685B0154660
:10C7C000A9B90268114B9A4211D0102D06D82A46F9
:10C7D00069462046FFF7F0FF05B030BD10226946DC
:10C7E0002046FFF7E9FF0028F6D0103DEDE7A368EB
:10C7F000AB4201D20020EFE723682A462046984743
:10C800000028F7D0A3685D1BA560E5E757C50E00BB
:10C81000F7B50E4601A907461546FFF789FFA8B1EF
:10C82000019A0123D3184FF0000404D2B17801F02B
:10C83000C001802901D1204608E031899942FAD30C
:10C8400029463846FFF7B8FF019BEC5403B0F0BD12
:10C8500073B50E4601A905461446FFF769FFB8B146
:10C86000019BB3F5803F07D202229A1804D2B17817
:10C8700001F0C001802901D1002009E031899142F5
:10C88000FAD321461A4621F8023B2846FFF794FFC7
:10C8900002B070BD13B5144669460822FFF78CFF3D
:10C8A00018B1DDE90023C4E9002302B010BD13B5BF
:10C8B000144604220DEB0201FFF77EFF08B1019B35
:10C8C000236002B010BD13B5044605291FD8DFE868
:10C8D00001F0030F151E1E1C012201A92046FFF7BF
:10C8E0006BFF18B19DF90430002BF5DB02B010BDD1
:10C8F000082200212046FFF75FFFF7E701A9FFF7B5
:10C9000017FF0028F2D0019AF3E70422F1E7002094
:10C91000ECE710B543681A887AB103F1100242605F
:10C920001A8A62B90168C368C0E901128C8823447D
:10C930000361B1F906100B444361104620E0997879
:10C940001A8901F03004302C1BD19C7C04F0300497
:10C95000302C16D199880269521A02610022997806
:10C9600011F0300F02BF816801318160998A114452
:10C9700002690A440261B3F916301A444261012087
:10C9800010BD01F0F004202C02D159894A43E6E79A
:10C9900001F0C001802908BF0422E0E74360CA69B2
:10C9A0009A420ED38A6902608A69C8691A448A6108
:10C9B0000A6FC01A1A44C86100300A6718BF012004
:10C9C000704701F1280202608B6700207047002049
:10C9D00070470378052B0CD1084AD2F88434D2F87A
:10C9E000802412F0FF0F04D1054ADBB2052B08BFEB
:10C9F0001046044BD3F8A430184700BF0070024023
:10CA000088400F00CC510020E3E7034B0146D3F8E8
:10CA1000B420D3F8B0001047CC510020024BD3F81B
:10CA2000A83003B118477047CC510020024BD86F93
:10CA3000003018BF01207047CC5100200020704703
:10CA4000084670472DE9F0431646994687B0804660
:10CA50000F46204B012253E8000F40EA020143E851
:10CA6000001494F0000FF6D188BB1B4C0223024641
:10CA7000864214D1FFF77AFCD8F80840002524B389
:10CA8000022368468DF80030CDE90157CDE9035601
:10CA9000CDF81490A047284607B0BDE8F08307EB17
:10CAA0000035C4F80435BFF36F8FBFF34F8FC4F860
:10CAB0000855D4F800140029FBD0C4F80425BFF3AE
:10CAC0006F8FBFF34F8F0130D2E72046E4E711208C
:10CAD000E2E700BF4852002000E001402DE9F041AC
:10CAE0001546984686B004460F460122204B53E86F
:10CAF000001F41EA020043E8000696F0000FF6D15D
:10CB000099BB1C48C0F80425BFF36F8FBFF34F8F4C
:10CB100028F0030129442A467B1B914219D10026A3
:10CB2000C0F80465BFF36F8FBFF34F8FFFF71EFC94
:10CB3000A468C4B101238DF800300C9B05936846AE
:10CB4000CDE90167CDE90358A047304606B0BDE8FE
:10CB5000F0819E1852F804CBC6F800C0D0F80064EB
:10CB6000002EFBD0D9E72046F0E71120EEE700BF0A
:10CB70004852002000E0014008B5FFF7F7FB002015
:10CB800008BD024B43600020704700BF8C400F007F
:10CB9000024B0020C3F80005704700BF00A0025000
:10CBA0000C4B98420DD006D820B1013B98420BD0D7
:10CBB00048F216507047084B984208D00D339842FF
:10CBC000F6D148F20350704748F20150704748F2DE
:10CBD000025070470102F0000202F00030B53AB195
:10CBE0001368DB430A4D0144884204D1D84330BD69
:10CBF0004FF0FF33F6E710F8012B5340082213F0F3
:10CC0000010418BF2C46013A84EA5303F7D1EBE73D
:10CC10002083B8ED00207047030A08704B70030CA6
:10CC2000000EC8708B700420704770B50378082B15
:10CC300006460D460BD14B880A88013B9BB24B80C0
:10CC4000002A79D0002B77D103234A8003702C6906
:10CC500060232370337863707378A3707378012B2B
:10CC60005ED133780B2B65D8DFE803F05664643A65
:10CC70006464435064560629E11C7068FFF7CCFFDA
:10CC80000330C2B2A118B068FFF7C6FF0244D2B2A7
:10CC9000A118F068FFF7C0FF0244D2B2A1183069B2
:10CCA000FFF7BAFF0244D2B27069A118FFF7B4FFD0
:10CCB0001044C1B26B682046BDE870401847337914
:10CCC000E370211DB068FFF7A7FF0430C2B2A118BE
:10CCD000F068FFF7A1FF0244D2B2A1183069E5E77E
:10CCE000E11C7068FFF798FF0330C2B2A118B0686A
:10CCF000DCE7E11CF068FFF78FFF0330C2B2A11838
:10CD00007068FFF789FF0244D2B2EFE7B388E3709F
:10CD10001B0A23710521CDE73379E3700421C9E7AC
:10CD20000B2B07D1054B002193F8F820E27083F814
:10CD3000F810F3E70321BDE770BD00BFCC51002020
:10CD40000A4AD2F800347BB109480023D2F808150A
:10CD5000D940C90748BF03F5C07103F1010348BFBB
:10CD600042F82100072BF1D1704700BF00000140BD
:10CD70003546526EE4E7024B012283F8F9207047F2
:10CD8000CC510020194991F8FA2084B0002A2AD108
:10CD90004FF08043A020D3F81834DB035EBF144B60
:10CDA00001221A60134A0023136012680392039A47
:10CDB000114A136012680292029A104A13601268B4
:10CDC0000192019A0E4A82F82403102050600D4A05
:10CDD0000D48C2F808350123036002201360C2F831
:10CDE000040381F8FA3004B0704700BFCC51002032
:10CDF00008000040004102404041024044410240DE
:10CE000000E100E00040024008400240024B0122E5
:10CE100083F8FB20704700BFCC51002008B504F018
:10CE200011FF08B5054B93F804210AB904F00AFF75
:10CE3000034901220A6183F8042108BDCC51002076
:10CE40000090004008B508B904F0FCFE0029FBD0B2
:10CE5000013900F12003834200D108BD11F8012FF0
:10CE600003F8012DF7E708B5EFF30583C3F30803D3
:10CE70002BB9EFF31483DB0701D504F0E3FE044A7A
:10CE8000D2F80831013BC2F8083103B962B608BDD7
:10CE9000CC51002008B5EFF30583C3F308032BB989
:10CEA000EFF31483DB0701D504F0CCFE72B6034A1E
:10CEB000D2F808310133C2F8083108BDCC51002046
:10CEC0000F4B10B503EB8000806A0378A3B90230E2
:10CED00010BD202B01D104F0B5FE02EB4304A4F8F1
:10CEE0000C11C15C01330029F3D15B0043F44073A2
:10CEF000A2F80C310348EBE70023034AF1E700BF37
:10CF000070400F00D8520020CC51002008B504F02A
:10CF100099FE08B500F00F03072B01D904F092FE2B
:10CF2000064BC3F80C05BFF34F8F40F48070C3F875
:10CF30000C05BFF36F8FBFF34F8F08BD0070024029
:10CF400008B500F00F03082B01D9FFF7DFFF11D060
:10CF500010F0800F084A0BBF03F5887303F5847344
:10CF600002EB830352F8230008BF5868431E58425F
:10CF7000584108BD0020FCE70070024008B500F0F1
:10CF80000F03082B01D9FFF7C1FF01D104F05AFEAE
:10CF9000044B40F48070C3F81805BFF36F8FBFF3E4
:10CFA0004F8F08BD0070024013B5244BD3F80044E6
:10CFB000C3F80044BFF36F8FBFF34F8FBFF36F8F82
:10CFC000BFF34F8FE1050CD51D4B012283F88C2058
:10CFD00002A800220192022200F8042DD3F8883022
:10CFE0009847A2050BD5164B002202A883F88C2087
:10CFF0000192032200F8042DD3F888309847630586
:10D0000019D50F4A92F88C30ABB10C4BD3F82C15D4
:10D0100009B104F017FE012082F88C10C3F808054E
:10D020005820FFF716FA02A80423019100F8043DE6
:10D03000D2F88830984702B010BD00BF007002409F
:10D04000CC51002007B500238DF804300C4BD3F8E9
:10D050002025ADF80620D3F8C034002B094BD3F8B7
:10D0600080200CBF4FF480714FF001210A43C3F8B8
:10D07000802001A8D3F88830984703B05DF804FBFE
:10D0800000700240CC51002037B50F4CFFF7BEF9BD
:10D0900094F8DA31032B14D0D4F8CC518DB96FF059
:10D0A000807104F18400FFF70AFA06238DF804303A
:10D0B00008238DF806308DF80750D4F8883001A881
:10D0C000984703B030BD00BFCC51002037B5134C9A
:10D0D000FFF79CF994F85A31032B07D16FF4803194
:10D0E00004F18400FFF7EBF903B030BDD4F84C51E4
:10D0F0008DB96FF4803104F18400FFF7E0F9062365
:10D100008DF804308DF806508DF80750D4F888302B
:10D1100001A89847E8E7FFF7A7F9E5E7CC51002019
:10D1200037B5134CFFF772F994F86A32032B07D125
:10D130006FF4807104F18400FFF7C1F903B030BDD2
:10D14000D4F85C52002DF9D16FF4807104F18400A1
:10D15000FFF7B5F906238DF8043088238DF80630E3
:10D160008DF80750D4F8883001A89847E6E700BF4B
:10D17000CC51002008B5FFF749F9084B93F8EA2194
:10D18000032A06D16FF001010548BDE80840FFF70A
:10D1900096B9D3F8DC31002BF4D008BDCC51002077
:10D1A0005052002008B500F00F03082B01D904F0FD
:10D1B00049FD10F0800F14BF00201020184408BD56
:10D1C00003062DE9F041064601D504F03BFDFFF7CB
:10D1D00039F91C4F06F00F04D7F880508046C0B1D3
:10D1E000FFF758FE3046FFF7DDFF012303FA00F09A
:10D1F0009C40154B25EA000004F2C5740022C7F8D4
:10D200008000043343F8044C1A601B68BDE8F04109
:10D2100029E6FFF73FFE3046FFF7C4FF012303FA7C
:10D2200000F025EA0000072CC7F88000EED804F5CE
:10D230009474064B43F82480BFF36F8FBFF34F8F76
:10D24000E4E700BFCC5100200078024000700240AB
:10D25000030610B5044605D4FFF772FE10B1204650
:10D26000FFF7AEFF04F00F03082B01D9FFF74EFEC6
:10D2700001D104F0E7FC044BC3F81845BFF36F8FEE
:10D28000BFF34F8F10BD00BF0070024010B5064BBA
:10D2900093F88D402046FFF785FF01462046BDE804
:10D2A0001040FFF773B800BFCC51002000F00F0210
:10D2B000082A08B501D904F0C5FC054B10F0800F11
:10D2C000A3F1900018BF184600EB021008BD00BF84
:10D2D000A853002010B50C4611B14B1E0B4201D0D3
:10D2E00004F0B0FC00F00F03072B0FD9084BD3F864
:10D2F0001C35DBB2802B0CBF4FF400734FF48063FE
:10D300009942EDD8FFF7D2FF848110BD4029F8E79C
:10D3100000700240030710B5044601D104F092FCEE
:10D32000FFF774F8FFF7C2FF837B032B0AD1204677
:10D33000FFF738FF01218140C9430448BDE8104090
:10D34000FFF7BDB80368002BF1D010BD505200208C
:10D350008720DFE78620DDE78520DBE78420D9E72B
:10D360008320D7E78220D5E78120D3E72DE9F34753
:10D370000446FFF78FFDFFF799FF14F0800F064674
:10D380003A4D2BD12046FFF70DFF0127D5F8843009
:10D3900007FA00F0984309D02046FFF711FF032356
:10D3A000B373FFF760FD02B0BDE8F0873060204640
:10D3B000FFF7F8FED5F8843007FA00F023EA0003FF
:10D3C0002046C5F88430FFF7EDFE07FA00F0D5F8E7
:10D3D000807027EA0007C5F88070E0E704F00F02CC
:10D3E000072A0FD8802C2249224B35D002F2DA329C
:10D3F00052000A601A681968D2B242F002020A4367
:10D400001A601B682046FFF7CDFED5E9209801275A
:10D4100068EA090A07FA00F01AEA000FC1D028EA00
:10D420000000C5F884002046FFF7BCFE002307FA81
:10D4300000F0336040EA090003230622C5F88000AB
:10D44000B3738DF807308DF804208DF80640D5F8B9
:10D45000883001A89847A4E740F2B4720A601A68BD
:10D460001968D2B242F00402C9E700BFCC510020D3
:10D470000078024004780240F7B5194B194CD3F8F4
:10D480008064D4F8803094F88D70DD43D4F8843013
:10D49000ADB238461D43FFF785FE012303FA00F0C5
:10D4A000284202D03846FFF761FF6FF0011106F005
:10D4B00080060D4884F88D60FFF701F8D4F88030BD
:10D4C00043F00103C4F8803002A800230193052330
:10D4D00000F8043DD4F88830984703B0F0BD00BF91
:10D4E00000700240CC5100205052002008B500F0DE
:10D4F0000F03082B01D904F0A5FB10F0800F14BF17
:10D500000420282000EB830008BD10B50C6804F04F
:10D510006043B3F1005F01D004F094FB4B689A4282
:10D5200028BF1A46002A08BF0024C0E900424B6801
:10D53000A3EB02034B600B681A440A6014BF01207E
:10D54000002010BD10B50C6804F06043B3F1005F1B
:10D5500001D004F077FB4B689A4228BF1A46C0E915
:10D56000004248680B68801A48601A4400300A601C
:10D5700018BF012010BD9A4238B501D204F062FBF9
:10D580000C6824B104F06044B4F1005FF6D14C683B
:10D59000A34209D900254560096801609A420CD16F
:10D5A000201C18BF012038BD43600D680560086865
:10D5B000E41A18444C600860F0E70020F3E700F03C
:10D5C0000F02082A08B501D904F03CFB054B10F006
:10D5D000800F03F1090108BF0B4601209B5C9840B6
:10D5E00008BD00BFB0400F0010B50446FFF7BEFEF7
:10D5F00004F00F02082A01D9FFF788FC01239340A9
:10D600000D4A14F0800F14BFD2F81015D2F814157B
:10D610006FEA030315BF0B400B40C2F81035C2F888
:10D620001435BFF36F8FBFF34F8F2046FFF7C7FF4F
:10D63000014BC3F8080310BD0070024000F00F0258
:10D64000082A08B501D904F0FDFA054B10F0800F47
:10D6500003F1120108BF0B4633F8120008BD00BFEA
:10D66000C2400F0008B500F00F03082B01D904F0E9
:10D67000E9FA064A10F0800F14BFD2F81005D2F86C
:10D680001405D84000F0010008BD00BF0070024042
:10D69000074B084A1B68B3FBF2F3074A91685843EB
:10D6A0009368CB1A23F07F439842F9D8704700BFA4
:10D6B0000051002040420F0010E000E008B516487D
:10D6C00090F890300BB904F0BDFAD0F89430002BEC
:10D6D000F9D0FFF7DFFBD0F89430013BC0F894306D
:10D6E000D0F89430A3B990F87032002BEBD00B4BEC
:10D6F00001221A604FF08042D2F80C3403F001137B
:10D70000B3F1011FF8D0002380F8713280F8913016
:10D71000BDE80840FFF7A7BBCC5100200400004043
:10D7200008B504F08FFA10B508B9FFF7F9FFC3691F
:10D7300013B1BDE81040184710BD08B508B904F092
:10D7400081FA00680028FAD00C3008BD08B508B985
:10D75000FFF7E6FFFFF7F1FF0023C0E91B33C0E945
:10D760001D3383828361036200F12803836608BD51
:10D7700008B508B904F066FA43788B4283BF837812
:10D78000C9184018002008BD08B508B904F05AFAB5
:10D79000037A8B4283BF093001EB4101401800201E
:10D7A00008BD2DE9F8431F46C94B15460A7A83F890
:10D7B00074220E460446984608B904F043FA0368FA
:10D7C000B3F5517F00F0BB8200F2D08040F22632E8
:10D7D000934200F02C8263D840F21632934200F05C
:10D7E000E88125D840F21332934200F0C781B3F5A7
:10D7F000457F0AD2002B00F0AE8140F212329342F4
:10D8000000F0B28100202060ACE100F0C58140F260
:10D8100015329342F6D100210DB123796B540131B9
:10D820000223B9422371C0F0C58140F2163397E15B
:10D8300040F21932934200F0D58114D840F21732E9
:10D84000934200F0C281B3F5467FDBD100210DB1D8
:10D8500023796B5401310023B9422371C0F0C38195
:10D8600040F219337CE1B3F5487F00F0D38140F2F8
:10D8700021329342C6D100210DB123796B5401F1BD
:10D880000109304698F87512FFF77EFFB945037815
:10D89000C8F878022371C0F0CC8140F226335FE1F2
:10D8A00040F23332934200F00482B3F54D7F38D218
:10D8B000B3F54B7F00F0D9811CD840F22732934258
:10D8C00000F0C481B3F54A7F9CD100210DB12379CA
:10D8D0006B54D8F87832327D1B789A4201F10101FD
:10D8E00040F0DC810223B9422371C0F0BF814FF4C4
:10D8F0004B7335E140F22D32934200F0C28140F289
:10D900002E3293427FF47EAF00210DB123796B5408
:10D91000013100238F42237100F2E5814FF44F73F0
:10D920001EE1B3F54F7F00F0DD8106D8B3F54D7FE2
:10D9300000F0CB8140F23532E3E740F242329342CD
:10D9400000F0E58100F2EF8140F2413293427FF432
:10D9500059AF00210DB123796B5401312423B94211
:10D960002371C0F0D58140F24233F9E040F25632E3
:10D97000934200F049826AD8B3F5537F00F01282D7
:10D9800032D840F24932934200F0F38115D840F288
:10D990004532934200F0E081B3F5527F7FF432AF1D
:10D9A00000210DB123796B5401312423B942237135
:10D9B000C0F0E08140F24933D2E040F24A32934273
:10D9C00000F0E38140F24B3293427FF41BAF002121
:10D9D0000DB123796B540131B37D2371B942C0F08D
:10D9E000E2814FF45373BBE040F25132934200F0B6
:10D9F000F28115D840F24F32934200F0DF81B3F547
:10DA0000547F7FF4FFAE00210DB123796B540131B7
:10DA10000223B9422371C0F0DF8140F251339FE00D
:10DA200040F25232934200F0E28140F2553293428A
:10DA30007FF4E8AE00210DB123796B54013124232A
:10DA4000B9422371C0F0E18140F2563388E040F2E0
:10DA50007232934200F020823CD840F25932934215
:10DA600000F0EB8115D840F25732934200F0D88194
:10DA7000B3F5567F7FF4C6AE00210DB123796B5408
:10DA80000131B37D2371B942C0F0D88140F25933DE
:10DA900066E040F26D32934200F0F18140F26E3266
:10DAA00093427FF4AFAE00210DB123796B5401F1A5
:10DAB0000109D8F8780298F87D12FFF759FEB945A8
:10DAC00003782371C0F0EA8140F2723348E000BF6E
:10DAD000CC51002040F28332934200F0FF81B3F535
:10DAE000617F14D240F27732934203D0B3F55F7F67
:10DAF0007FF488AE00210DB123796B5401314023AE
:10DB00008F42237100F2EB8140F2833328E040F230
:10DB10008932934200F0FA8140F28E32934200F053
:10DB2000F581B3F5617F7FF46DAE00210DB12379EE
:10DB30006B54D8F87832327D1B789A4201F101019A
:10DB400040F0D981336AB9421B782371C0F0DF817C
:10DB500040F2893304E0082303712FB940F21233F5
:10DB600023600120BDE8F8830DB123792B700B23CE
:10DB7000012F23710ED840F21333F1E700210DB1CC
:10DB800023796B540131337D2371B94205D34FF4AE
:10DB90004573E5E70121F2E700210DB123796B54CC
:10DBA00001310223B9422371FFF436AE40F215333E
:10DBB000D6E700210DB123796B5401310223B9421C
:10DBC000237103D340F21733CAE700210DB1237943
:10DBD0006B540131737E2371B942FFF438AE4FF4B8
:10DBE0004673BDE700210DB123796B540131002349
:10DBF00088F8753298F8752298F874329A4202D3F0
:10DC000040F29933ACE709238F42237103D84FF4D4
:10DC10004873A5E700210DB123796B54013104232A
:10DC2000B9422371FFF428AE40F2213398E74FF058
:10DC3000000915B1237905F8093009F10101002324
:10DC4000B942237103D340F2273389E700210DB194
:10DC500023796B54D8F8783201315B782371B9425B
:10DC6000FFF434AE4FF44A737AE700210DB1237903
:10DC70006B5401310223B942237103D340F22D3397
:10DC80006EE700210DB123796B540131737E23714E
:10DC9000B942FFF43AAE40F22E3361E7B27D9A42C8
:10DCA0007FF48BAD0A23B942237103D340F233339F
:10DCB00056E700210DB123796B5401310023B9429D
:10DCC000237103D34FF44D734AE700210DB123793B
:10DCD0006B5401310023B9422371FFF416AE40F2B8
:10DCE00035333DE700210DB123796B54D8F87832F4
:10DCF000327D1B789A4201F1010140F0B580052385
:10DD0000B9422371FFF426AE40F2413328E70021E7
:10DD10000DB123796B5401310023B942237103D330
:10DD200040F243331CE700210DB123796B540131DC
:10DD30001023B942237103D34FF4517310E700212C
:10DD40000DB123796B5401310120B942207104D304
:10DD500040F24533236005E700210DB123796B5470
:10DD600001310523B9422371FFF41BAE4FF4527306
:10DD7000F6E600210DB123796B5401310120B9423F
:10DD8000207103D340F24A33E4E700210DB1237937
:10DD90006B5401310323B9422371FFF419AE40F2F1
:10DDA0004B33DDE600210DB123796B54013104239F
:10DDB000B942237103D340F24F33D1E600210DB1B4
:10DDC00023796B5401312423B9422371FFF41CAE33
:10DDD0004FF45473C4E600210DB123796B54013123
:10DDE0000223B942237103D340F25233B8E6002133
:10DDF0000DB123796B5401310523B9422371FFF42E
:10DE00001AAE40F25533ABE600210DB123796B54C5
:10DE100001310623B942237103D340F257339FE601
:10DE200000210DB123796B540131337D2371B94247
:10DE3000FFF423AE4FF4567392E600210DB123791F
:10DE40006B540131D8F878325B7888F87C32002343
:10DE500088F87D3298F87D2298F87C329A4207D370
:10DE600098F875320133C3E6B27D9A42EAD0A4E451
:10DE700007238F42237103D840F26D3370E60021EF
:10DE80000DB123796B5401310523B9422371FFF49D
:10DE90000BAE40F26E3363E64FF0000915B1237903
:10DEA00005F80930D8F87832327D1B789A4209F1AA
:10DEB000010107D10323B9422371FFF41CAE40F2E4
:10DEC00077334DE6B27D9A427FF477AC0223B942B4
:10DED0002371FFF410AE4FF45F7341E600210DB1E2
:10DEE00023796B5401310023B9422371FFF41EAE34
:10DEF0004FF4617334E6B27D9A427FF45EAC002346
:10DF0000B942237103D340F28E3329E600210DB1CB
:10DF100023796B5498F87D320131013398E708B5C5
:10DF20000121FFF731FC0121FFF722FC007808BD39
:10DF300008B508B903F086FE0368186808BD2DE926
:10DF4000F843184BD3F880420CB9BDE8F88394F835
:10DF500008800026F5B2454504D32046FFF7E8FFC8
:10DF60000446F1E76368DB6813B129462046984709
:10DF7000237AAB4201D203F065FE29462046FFF723
:10DF800003FC90F8019007460025E9B2894501D8C5
:10DF90000136DFE73846FFF7EBFB0078FFF724FB9D
:10DFA0000135F2E7CC5100202DE9F04100F00F05DA
:10DFB000082D80460F4601D9FEF7A8FFFFF752FB58
:10DFC000B0B31C4C94F88432022B264630D1404624
:10DFD000FFF7E8F8FEF75EFF1DB994F88D30434572
:10DFE00022D1D6F8804001258540E443D6F884004C
:10DFF000A4B2204310EA050418D14046FFF756F9B1
:10E0000084603B6803607B6843608473D6F8840057
:10E01000094B28438022C6F88400C3F80421204617
:10E02000FEF721FFBDE8F0811020F9E71120F7E7A6
:10E030000820F7E7CC51002000E100E02DE9F8438B
:10E0400000F00F08B8F1080F81460D4601D9FEF720
:10E050005DFFFFF707FB002860D0314C94F8843255
:10E06000022B26465AD14846FFF79CF8FEF712FFCE
:10E07000B8F1000F03D194F88D304B454AD1D6F852
:10E080008020D6F88430D243012792B287401A43C9
:10E090003A4241D14846FFF709F90C2319F0800FA5
:10E0A000044603FB08F32A6828D01E4902F06042A8
:10E0B0000B44A968B2F1005F01F0010119D1B1B9B7
:10E0C000194A226095E8070083E807006360D6F8E4
:10E0D00084301F43154BC6F8847000208022A06056
:10E0E000A073C3F80421FEF7BEFEBDE8F883104A12
:10E0F000E7E709B90F4AE4E70F4AE2E732B102F075
:10E100006042B2F1005F01D003F09CFD0B4A134462
:10E110000B4AD6E71020E6E71120E4E70820E4E701
:10E12000CC5100205454002045D50E0000E100E001
:10E130000BD50E00D1E80E0081E80E00C05400207F
:10E1400077D50E001FB5C38893421C4628BF1446DE
:10E15000934281BF144BB3F8E801B2FBF0F300FB2C
:10E16000132286BFB2FA82F252090022CDE90114CD
:10E170000392FEF78FFE01A98020FFF75FFF0446A0
:10E1800068B9094B93F88D20802A01BF074AD2E96C
:10E19000000103F55873C3E9000118BF1024FEF70E
:10E1A00062FE204604B010BDCC510020E8400F00B4
:10E1B00070B500F00F06072E044604D8FEF7A9FE3E
:10E1C0002046FFF745F82046FFF7F9F91D4DC5F841
:10E1D00004032046FFF746FA98BB082E01D9FEF744
:10E1E00095FE61B20029B4BFD5F81025D5F81425E5
:10E1F0004FF0010303FA06F3B5BF13431343C5F809
:10E200001035C5F81435BFF36F8FBFF34F8F630719
:10E2100017D0002915DBFEF73DFE2046FEF7D0FFA4
:10E220002046FEF7BFFF084A012303FA00F0D2F8A8
:10E23000843023EA0003C2F88430BDE87040FEF762
:10E2400012BE70BD00700240CC51002070B5436812
:10E250009B6805460E46144623B92B7AB34205D275
:10E2600003F0F0FC98470628F7D070BD94B931460A
:10E270002846FFF789FA46780546E1B28E4201D872
:10E280000020F2E72846FFF773FA0078FFF790FFC7
:10E290000134F2E70720E8E738B5831EDBB2062B2E
:10E2A00098BF394A394C96BF9B18002293F88020BA
:10E2B00094F88432023BDBB2062B9BBF32495B18D9
:10E2C000002393F88030934205461AD0002A50D09C
:10E2D00094F890300BB903F0B5FC94F8913033B357
:10E2E0002B4B00209B689847FEF7D4FDD4F8943060
:10E2F0000133C4F89430FEF7B6FDD4F89430002B07
:10E30000E9D0022D01D0082D36D1012394F88422C2
:10E31000022A01D0082A31D101229A4204D01D4A92
:10E320001D496BB3C2F8041384F8845238BDFEF75C
:10E33000B1FDD4F89810194A0B46B3B9144BC4F880
:10E3400098205960D4F89430002BCFD194F87032D3
:10E35000002BC0D04FF48070FEF79AF84FF0804346
:10E360000122C3F804231A60C0E79342EAD01B6875
:10E37000E3E7FFF7A3F9C4E70023C7E70022CCE7F0
:10E38000C2F80813D0E700BF70400F00CC51002046
:10E39000005100200070024004148001045100204C
:10E3A00008B508B103F04EFC0248BDE80840FEF78E
:10E3B00010BB00BFF7400F00012808B509D003D3F8
:10E3C000022808D003F03EFC0448BDE80840FEF7F0
:10E3D00000BB0348F9E70348F7E700BFF8400F0028
:10E3E000FC400F0000410F0008B510F0800F00F056
:10E3F0000F0318B207D0082B01D903F023FC044BFC
:10E4000003EBC00008BD082BF7D8024BF8E700BFAC
:10E41000345500207C52002010B508B903F012FCDE
:10E420004368002BFAD01B68002BF7D0BDE81040E2
:10E43000184738B5084BD3F8804205460CB906207A
:10E4400038BD29462046FFF7E7FF0628F8D12046C9
:10E45000FFF76EFD0446F1E7CC51002038B5074BBD
:10E46000D3F88042054604B938BD29462046FFF757
:10E47000D3FF2046FFF75CFD0446F4E7CC510020B3
:10E48000154BA1F196029A4273B501D903F0DAFB5C
:10E49000047B124D0026032CD5F804354660F5D8D0
:10E4A000194404F5A87321F07F4145F823100C4B63
:10E4B0004FF4F86043F001039847A200094B9E50C7
:10E4C0009B580193019B4FF4803303FA04F4C5F881
:10E4D000044302B070BD00BF69FFFF00004002406E
:10E4E00010410F004041024070B5134E96F8B02322
:10E4F00002BB124BD3F80024CAB1D3F80445104D27
:10E5000040F616539C42B8BF1C46A4F54864FEF77B
:10E5100017FC6C62FEF736FC28460A4B40F81C3F9D
:10E520002146FFF7ADFF084B4FF480321A600123FC
:10E5300086F8B03370BD00BFCC5100200000014010
:10E540000051002075CD0E0000E100E008B5036821
:10E550002F2B01D903F076FB1F2B85BF03F01F0380
:10E5600003604FF0A040014808BD00BF0003005009
:10E570005B68DA68064B9A4208D1D0E90123054965
:10E580000132013BC1F8B423C1F8B833704700BF72
:10E5900018410F00CC51002043F204031A68084BC5
:10E5A0009A4201BF43F20803186800F6FF7020F496
:10E5B0007F600CBF20F00F004FF48050704700BF09
:10E5C000DBE5B15110B5074CFFF7E6FF0022D4F8A8
:10E5D000D413FEF703FBD4F8D8331B1A5842584122
:10E5E00010BD00BFCC51002008B5FFF7D5FF054B8B
:10E5F000D3F8D433184400F6FF7020F47F6020F085
:10E600000F0008BDCC510020F8B5094E094CA41BE1
:10E610000746E4080025A54201D10020F8BD06EB1D
:10E62000C50338465B6898470028F7D10135F2E703
:10E63000BC450F00C4450F0010B500220446582108
:10E640000430FEF7CBFA23681B1A5842584110BD1C
:10E65000024B0620D3F81835184700BFCC510020D4
:10E6600018DF70471FB5062100234FF4805268461B
:10E67000CDE90012CDE90233FFF7F2FF072802BF10
:10E680004FF0005118460A6005B05DF804FB43697D
:10E690000BB1C06818477047062810B5044602D170
:10E6A0000020FFF7B1FF044BD3F81C351BB1204607
:10E6B000BDE81040184710BDCC510020704707B589
:10E6C00002AB43F8040D1846FFF740FF019A0123FF
:10E6D0009340C0F80C3503B05DF804FB07B502ABFE
:10E6E00043F8040D1846FFF731FF019A01239340C8
:10E6F000C0F8083503B05DF804FB08B5164B93F875
:10E7000020250132D2B2022A88BF002283F82025B8
:10E7100093F82035012B0DD002D3022B11D008BD68
:10E720002720FFF7CCFF2A20FFF7D8FF2420BDE8E1
:10E730000840D3E72720FFF7D1FF2A20FFF7BFFFCC
:10E74000F4E72720FFF7CAFF2A20FFF7C7FF24209E
:10E75000BDE80840B3E700BFCC51002007B502ABCD
:10E7600043F8040D1846FFF7F1FE019B03F5E07333
:10E77000022240F8232003B05DF804FB07B502AB8A
:10E7800043F8040D1846FFF7E1FE019B03F5E07323
:10E79000032240F8232003B05DF804FB054B1B68FF
:10E7A000082B01BF044B1868B0FA80F0400918BF6D
:10E7B00000207047300100103401001030B51920DE
:10E7C00089B0FFF7CBFF2720FFF7C8FF2A20FFF70C
:10E7D000C5FF2420FFF7C2FFFEF723FB254890F872
:10E7E00004310BB903F02EFA234B0122DA60234ADD
:10E7F0004FF40071C2F8801000244FF0FF35D3F8B9
:10E800000022C3F80042C3F80853FEF70AFB80F861
:10E810000441EFF305824FF4805341F204011B6879
:10E82000096884F3148884F3108884F3118884F3CE
:10E830001388C2F308022AB983F30888AE46084752
:10E8400009B030BDCDE90044CDE90244CDE904452D
:10E850004FF08072A3F120040691079269462022AE
:10E86000204604F068FF84F30888AE466FF0060384
:10E870001847E5E7CC5100200090004000E100E09F
:10E88000F8B50D46096801F06043B3F1005F064634
:10E8900001D103F0D7F96C68944228BF1446402C8C
:10E8A000F7D884B1094F2246384604F044FF376058
:10E8B00074606B681B1B6B602B68201C23442B60EF
:10E8C00018BF0120F8BD0460F2E700BFF056002039
:10E8D000F8B50D46096801F06043B3F1005F0646E4
:10E8E00001D103F0AFF96C68944228BF1446402C64
:10E8F000F7D8084F2246384604F01DFFC6E90074D9
:10E9000068682A68001B6860224400302A6018BFCB
:10E910000120F8BDF05600202DE9F04F0D4689B0DA
:10E92000044608B903F08EF90029FBD00B780E2BB2
:10E930001ED8DFE813F011000F00110011001D00B8
:10E940001300F8001D001D000F001D001100110034
:10E9500011001100FEF7FAFE00255FE04B78DA099E
:10E960004FEA53167CD016F0030603D0012E6BD06D
:10E97000062553E003F01F03012BF9D18B78062BFA
:10E98000F6D108AF91F804A091F803B047F8146DE0
:10E99000019663680022D3F804802146012338469B
:10E9A000C04700283ED18DF80A00059007468146F1
:10E9B000019B4B45DCD963680DF10A02D3F8048052
:10E9C0002146012305A8C04763680DF10B02D3F867
:10E9D00004802146012305A8C0479DF80B309DF80F
:10E9E0000A805345636823D1BB451FD1994A5F68AC
:10E9F00082F80C8182F80DA102F58676A8F1020357
:10EA000002F58772214605A8B847B8F13F0F89D8AB
:10EA100042463146681CFFF795FB0546284609B07B
:10EA2000BDE8F08F019B01330193B2E70137FFB2DC
:10EA30005B6800221E462146A8F1020305A8B047E4
:10EA40009DF80A309944B3E7FEF777FEAB78212BA7
:10EA50008ED1B5F80720072A8AD100F10C01D9E739
:10EA6000012E85D1FEF769FEAB78202B074636D004
:10EA7000222B7FF47DAFB5F80730002B7FF478AF01
:10EA8000037DB5F80350858203F0010305F001050D
:10EA9000AB423FF461AFADB2002D0CBF03210221A8
:10EAA0002046FEF740FE002D7FF456AF314620464B
:10EAB000FEF76AFE2946FEF75BFE0078FEF756FC7D
:10EAC0002046FFF72CFAFEF751FC07F12803BD6141
:10EAD0003D62C7E91B55C7E91D55BB669EE7B5F802
:10EAE0000720072A7FF444AF0370B5F8073043705E
:10EAF000831C05934378069300200790FEF7CAF91C
:10EB000005A9FFF79BFA054640B9524B93F88D20B3
:10EB10003AB9514AC3F86023C3F86443FEF7A3F936
:10EB20007CE71025FAE70021FEF72EFE0021FEF714
:10EB30001FFEAB7802789A423FF40EAF1B06ED78C9
:10EB40000AD525B1032D0CBF0025032566E7012159
:10EB50002046FEF7E8FD61E7012D3FF4FDAE04D34A
:10EB6000032D3FF4F9AE032558E72046FEF7E5FDF7
:10EB700006462046FFF7D3F9384BCDE90536F7694D
:10EB80008046B7B9336F356AF766C6E91C736DB155
:10EB900006F1200103C906F1180383E80300376278
:10EBA00005A94046FFF700FA054600E0B5610021DF
:10EBB000CEE7D6F87890B0694F4528BF4F4606F1AA
:10EBC00028053A46294604F0B6FD336F3B44736787
:10EBD000A9EB0703F366336A00223D443267B5664A
:10EBE000002B34D006F1200999E8030006F118073C
:10EBF00087E8030015463262F36EB0691BB9B56948
:10EC0000002DCDD1D3E7F269B16E9A4215D804F048
:10EC100092FDF369F26E7367D21AF266B26E1A440D
:10EC2000B26600212046FEF77EFD336A7BB199E88B
:10EC3000030087E803003562DEE71A4604F07BFD37
:10EC4000F26EF36932679B1AF361B3691344B361DF
:10EC5000D5E700BFCC51002061EC0E009DC90E002D
:10EC600010B5044660B90846FEF767FD0378202B0F
:10EC700008D1811C07220C3004F05DFD204610BD38
:10EC80000320FCE70620FAE72DE9F04F85B04B683A
:10EC9000009281460C465BB90868FFF749F938B91C
:10ECA000A5682DB9C9E90055284605B0BDE8F08F23
:10ECB000009B402B01D902F0C5FF009BE7689F42F3
:10ECC00028BF1F464FF0000804F1100346460125F7
:10ECD000019367B3A3686168BB429A4628BFBA46EE
:10ECE00049B32C4B5246981904F025FD002363606C
:10ECF000A268E368A2EB0A02A3EB0A0BA260C4F8C5
:10ED00000CB0A7EB0A0756441ABBB8F1000F3BD072
:10ED10002068FFF70DF92060BBF1000F32D02368A7
:10ED2000E3B963601EB1009BB34288BF0025194B55
:10ED3000C9E90036B8E7002BDAD02168154A4B68DC
:10ED40000198D3F8048032445346C0474FF001087D
:10ED5000CEE7BBF1000F08BF0025BAE70DF1100A9E
:10ED600000234AF8083D21684B680022D3F804B01C
:10ED700050460123D84708B92061AAE7A3680133A8
:10ED8000A360F0E75D46A4E7BBF1000FC7D145469D
:10ED90009FE700BFF05600202DE9F041224C0D46C0
:10EDA0001646FEF777F894F8642594F86535B4F8BC
:10EDB0006615DBB28B4238BF0133D2B234BFDBB24F
:10EDC00000239A4204D1FEF74EF80420BDE8F081FA
:10EDD00094F8657594F86535DBB2994286BF0133C6
:10EDE000DBB2002384F86535FFB2FEF73CF83AB297
:10EDF000D4F868354FEAC20803EB080143F83260E3
:10EE000078B1D4F86C35B4F8706501462A4607FB32
:10EE1000063004F090FCD4F86835434400209D800F
:10EE2000D4E78880D2E700BFCC51002008B5104657
:10EE30001A4604F080FC002008BD70B504460E4858
:10EE40000A46016809B902F0FDFE002AFBD04368BA
:10EE50001D686B1E2340F6D1C668B442F3D3661E0C
:10EE600005FB02650669B542EDD80D692146AC4641
:10EE7000BDE87040604700BF9C510020F7B50446D4
:10EE800009B902F0DFFE11480668002EF9D0002A09
:10EE9000F7D045686F68B2FBF7F507FB1525002D25
:10EEA000EFD1A707EDD18D07EBD1C568AC42E8D310
:10EEB000651E07691544BD42E3D80093F568134603
:10EEC0000A462146A84703B0F0BD00BF9C51002070
:10EED00008B543F204000E4B02689A4216D1002393
:10EEE00004220C49FFF7CAFF80B90B4BD3F8DC238F
:10EEF00043F20801012A08BFC3F8DC03D3F8D42386
:10EF000009680A44A2F58052C3F8D42308BD00BFA3
:10EF1000DBE5B151B8410F00CC510020F8B50F46E8
:10EF20000121054616461C46FFF787FF08B103205E
:10EF3000F8BD4FF4AE723946204604F0FCFB334670
:10EF40004FF4AE7221462846FFF798FF0028EFD015
:10EF5000EDE710B5FDF79EFF0F4BD3F8741503F2E4
:10EF60007C52914216D94C1EC3F8744511F8010C1D
:10EF70000A4A40F6040101FB002003F27F52121BF3
:10EF800093F87815D2B2914201D283F87825FDF733
:10EF90006AFF10BD0020FAE7CC510020AC620020CF
:10EFA00037B51E48FEF7C9FB838ADB07044632D516
:10EFB000FDF770FF856925BBC36E8BB1816E184864
:10EFC000012204F0B8FBE36E013BE366A36E01335C
:10EFD000A366012363672846FDF745FF03B030BDF4
:10EFE0000F4B83610123C3610C48FEF798FF0D4B63
:10EFF0006946CDE90034FEF7D7FF002808BF92200C
:10F00000EAE7036A2BB9064B0362012343629220AD
:10F01000E2E71120E0E70820E0E700BFBC410F0075
:10F020004B5700209DC90E002DE9F04387B0B1B9C0
:10F03000594C5A4F2546D4F8C835D4F8CC259342BC
:10F0400008D094F8C01594F87F2501291DD00DD360
:10F05000022930D0FFF7A4FF0028ECD003E00229FA
:10F0600001D1FFF79DFF07B0BDE8F083C02A2AD089
:10F07000DB2A03D1012384F8C035EBE7D4F8C415AB
:10F08000581CC4F8C805CA54E4E7DC2A03D0DD2ABA
:10F090000AD00223EFE7591CD4F8C425C4F8C815D8
:10F0A000C021D1540023E6E7591CC4F8C815D4F890
:10F0B000C425DB21F5E7C02ACCD1002384F8C03574
:10F0C000C4F8C835C6E73846FFF79EFAD4F8C465D9
:10F0D000D4F8C89518220021684604F050FB337814
:10F0E0002F4A8DF800300192013B2E4A029206F120
:10F0F00001080A2B0FD8DFE803F016060E0E0E13D8
:10F100002D20320E32007378B27843EA0223A5F83C
:10F11000D035A5F8D235D5F8D8354046984715E012
:10F1200073780493F7E7B5F8D035A5F8D23573783E
:10F130000493D6F802300593EDE709F1FF39D5F8CD
:10F14000D835CDF81080ADF814900393029B53B9D5
:10F1500002F078FDD5F8DC35ADF81030DBE77378D8
:10F160008DF81030D7E7B5F87035172BF0D90E4A67
:10F1700018216846FFF710FE06460028E8D1FFF781
:10F18000E8FE00283FF466AF0330C5F8C405C5F8B3
:10F19000C86585F8C0655DE7CC510020BC450F000F
:10F1A0009C5700202BCC0E00450E0F00044B1A6814
:10F1B000D2075FBFC02283F8002301221A60704784
:10F1C00000E100E010B508B902F03CFD0C4C94F8E9
:10F1D000E41591B903784FF08042C3F34003C2F8BD
:10F1E0008035037803F00103C2F87835FFF7DEFFBE
:10F1F000012384F8E435084610BD8520FCE700BFF4
:10F20000CC51002008B5064BD3F8E825012A01D0DF
:10F2100002F018FDBFF35F8F0022C3F8E82508BD98
:10F22000CC5100202DE9FF4108B902F00BFD002967
:10F23000FBD0204D014400234FF0DB0C4FF0DC0EDF
:10F240004FF0DD08814205EB030203F1010419D1FF
:10F25000C02313701848FEF770FA838ADA0727D59F
:10F2600000211648FEF784FAA30600780CBF01239C
:10F27000002301A9CDE901540393FEF7DFFE04B09A
:10F28000BDE8F08110F8016BC02E05EB040703D038
:10F29000DB2E08D0167004E082F800C09C1C87F8B2
:10F2A00000E02346CEE716709C1C87F80080F8E744
:10F2B0000820E4E7B8570020BC410F00C8410F0008
:10F2C000043808B501D102F0BDFCFDF7E3FD084AA2
:10F2D000D2F87435591CC2F87415064A801A40F6E3
:10F2E0000402B0FBF2F01870BDE80840FDF7BBBDAA
:10F2F000CC510020AC62002070B504460E48036873
:10F3000001330D4602D0FFF797F908B902F09AFCD5
:10F310004FF4AE722946094804F0FEF920B954B101
:10F320002346BDE87040184722462946044B03484F
:10F33000BDE87040F2E570BD00F00F0000E00F0086
:10F34000EC570020C31E70B50446104D042B0CD89A
:10F35000DFE803F003030B1212000D4B1A7E4FF48B
:10F36000803393400B4AC2F80833D5F87C375BB141
:10F370002046BDE87040184700230749074885F834
:10F38000FB30FFF7B9FFF0E770BD00BFCC510020A4
:10F39000005100200040024000F00F001DCE0E0082
:10F3A000034B04490448002283F8FB20A4E700BF74
:10F3B000CC51002000F00F001DCE0E0010B50D4CFA
:10F3C0000022582104F57070FDF708FC4FF4AE726E
:10F3D000C4F8BC0304F56F71074804F09DF940B10F
:10F3E00004F5F06304F56F7100220348BDE8104096
:10F3F00094E510BDCC51002000F00F0038B5054653
:10F40000FFF7DCFF044618B902492846FFF774FFEE
:10F41000204638BD8855002081422DE9F74F05462A
:10F420008946164601D202F00DFCC0F30B03002BF7
:10F43000F9D10C1A240BF6D002F6FF77FFF754F837
:10F44000082C28BF08242303DFF864B001933F0B86
:10F450000EB9334627E0BC422CBFBA46A2465146FD
:10F4600028462CBFB046DDF80480FFF7E6FC0346D3
:10F47000C8B908F1030222F0030249462846FFF703
:10F48000FDFC034678B9DBF8EC334344CBF8EC33AE
:10F49000FFF7B4FFA7EB0A07A6EB08064544C144F3
:10F4A00003460028D4D0184603B0BDE8F08F00BF53
:10F4B000CC51002008B5164A42F20403D2F80414D5
:10F4C000C85803F1A34303F5471303F2D7539842F7
:10F4D0001AD1D2F8EC33D2F8F023934216D003F5C8
:10F4E00080501944884203D10020BDE8084085E7D8
:10F4F000D21A02F6FF7222F47F6222F00F02FFF7A7
:10F500008BFF0028F0D008BD0320FCE70020FAE7BD
:10F51000CC51002030B5164BD3F8E823D3F8E043A4
:10F52000D3F80454AC2A85B01CD1D3F8F0331D4471
:10F53000E41A224629460F4804F0EEF880B10E4B3B
:10F54000D3F800340BB1FDF7FBFB10220021684615
:10F5500004F015F9A408684601950294FFF780F8B5
:10F5600005B030BD002DE4D1FFF73EF80546E0E7D9
:10F57000CC51002000C00E00000001402DE9F341F5
:10F58000294C2A4BD4F8DC289A4243D1D4F8E038ED
:10F590005B79202B41D1264BC4F8243904F5BD6298
:10F5A000012352E8005F194642E8001696F0000F6A
:10F5B000F7D1BFF35F8F9DBBDFF880801D4EC8F889
:10F5C00000354FF48067776004F6C813009004F6A6
:10F5D000E81204F6E40104F6241002F0F9FEC8F87B
:10F5E0000055C6F88470D4F8E835012B01D002F03C
:10F5F00029FBBFF35F8FC4F8E85540B10E4948F2CC
:10F60000425248F2165388420CBF1046184602B0C8
:10F61000BDE8F08148F24050F9E748F21150F6E7B2
:10F6200048F20450F3E700BFCC5100207052464D21
:10F63000DD55AABB00E100E08408F00000A0025004
:10F640002DE9F04F704E96F88E3085B0002B7FD1AB
:10F65000D6E9204121407BD011F0012415D094FA45
:10F66000A4F4B4FA84F40F2C86BFA4F11005EDB213
:10F6700044F080052846FDF719FED0F800A080462A
:10F68000BAF1000F06D102F0DDFA91FAA1F1B1FA58
:10F6900081F4E8E74FFA85FBBBF1000F05F00F0797
:10F6A000828958DA416802A8D04708B9C8F8000032
:10F6B000564B82221A600121D8F8083086F88E1045
:10F6C000039AA140D6F88040134424EA0101BBF11B
:10F6D000000FC6F88010C8F8083002994C4B72DA57
:10F6E000072F9BBF142000FB0737C3F8A016C7F8ED
:10F6F00000168CBFC3F8A426C7F80426FCF7A2FEA8
:10F70000002871D0434C444E00272760BFF36F8F11
:10F71000BFF34F8F2846FDF7E9FEFCF79AFE022063
:10F72000FDF7B6FF2368002BEFD01E20FDF7B0FFDA
:10F7300033689B0656D50120FDF7AAFF2846FDF742
:10F740007DFF00F1804000F51C300368002BDCD009
:10F7500005B0BDE8F08F082F01D9FDF7D7FB12D116
:10F760002B4BD3F8C09419F4803F18BF4FF0000919
:10F770004B46D8F8041002A8D047DDE9022342B96D
:10F78000002B92D07FE707F59473214951F823901D
:10F79000EEE74B4514D201210227A14088F80E70F4
:10F7A000C9431E48FCF78BFE06238DF804308DF804
:10F7B00006508DF80770D6F8883001A8984747E7BB
:10F7C0003FF473AF5FE7072F9BBF142000FB0737A1
:10F7D000C3F8A017C7F800178CBFC3F8A427C7F851
:10F7E00004278BE70220A1E72846FDF77FFEFCF700
:10F7F00030FE2846FDF722FF00F1804000F51C3066
:10F800000368002BF5D0A3E7CC5100201C7C0240FC
:10F810000070024004710240747402405052002093
:10F8200073B50446FCF7F2FDFDF740FD837B032B27
:10F830000CD12046FDF7B6FC01218140C943104898
:10F84000FCF73DFEFFF7FCFE02B070BD0668002E1F
:10F85000F8D12046FDF7A6FC0A4D01218140C9439D
:10F8600005F18400FCF72BFE06238DF804308DF89B
:10F8700006408DF80760D5F8883001A89847E1E781
:10F8800050520020CC5100200720C9E70620C7E7CE
:10F890000520C5E70420C3E70320C1E70220BFE736
:10F8A0000120BDE738B5174BD3F86C44C3F86C445E
:10F8B000BFF36F8FBFF34F8FFCF7C4FD48B1124AFF
:10F8C000D2F8283A23F0011103F001130C43C2F8D7
:10F8D000283A012514B9BDE83840B1E694FAA4F3FA
:10F8E000B3FA83F30F2BD9B2C8BFA1F1100005FA08
:10F8F00003F3CCBFC0B241F0800024EA0304FCF75C
:10F9000045FDE7E700700240CC510020F8B5124EEB
:10F91000D6F88040D6F88420240C24041443012710
:10F9200024B940F2FF13C6F88030F8BD94FAA4F56C
:10F93000B5FA85F5E8B20F2DC6BF1038C0B240F059
:10F94000800000F00F03072B01D8FDF70FFD07FA29
:10F9500005F524EA0504E3E7CC51002010B5FDF7D6
:10F9600099FA0F4B93F88C3003F0FF0423B900246D
:10F97000FDF779FA204610BDFFF7C8FF094AD2F813
:10F98000003413F40073F2D10121C2F82C15D2F81F
:10F990000014890544BFC2F82C351C46E8E700BFB7
:10F9A000CC5100200070024038B50F4B93F82C3A30
:10F9B000022B01D002F046F90C4C8025C4F884518A
:10F9C00063681B060FD5FFF7A1FF094B0022C3F8A0
:10F9D0000425BFF36F8FBFF34F8F4FF0FF32C4F892
:10F9E0008450C3F8082338BDCC51002000E100E06A
:10F9F0000070024070B5B04DD5F8803206460BB9A4
:10FA000002F020F9EFF30583C3F308038BB1103B39
:10FA10005AB2002AABBF02F1604303F00F0303F5B3
:10FA20006143A64AACBF93F80033D35C5B09052B56
:10FA3000E6D93478092C1CD01FD8032C00F00281A1
:10FA40000ED8012C00F0E88040F2CF800320FEF7B2
:10FA500023FC0220FCF7E2FF3046FEF7FFFC1CE02F
:10FA6000052C1AD0C0F0FE80062C00F00B81082C6B
:10FA7000C6D12046FCF7D2FFDFE0812C12D005D89A
:10FA80000F2CF6D0802C6DD00A2CF1E7832C75D08A
:10FA900046D3842C7CD0852CB2D13046BDE8704052
:10FAA000FCF7B3BF8648FCF7B0FF8548FEF7D6FCED
:10FAB0000D20FCF7B3FFFEF742FA0020FDF794FD9E
:10FAC0008020FDF791FDD5F8303A2BBB95F8AC308E
:10FAD00095F82C2A022A93D1002285F88C20EBB9C4
:10FAE000FCF7B0FC774B784A002814BF1846104644
:10FAF000764B774AC3F80403C02182F8271301200C
:10FB000080215160C3F80405BFF36F8FBFF34F8F9F
:10FB1000BDE87040FEF7C0BB0123D9E76948E7E7BD
:10FB20006C4CFEF70CFAFFF73FFF0020FEF7B4FB2A
:10FB300004F27110FEF792FC04F27110FCF765FFFD
:10FB40000E20FCF76BFF95F88432023BDBB2062BEC
:10FB50005AD8234493F88030002B55D0BDE870402C
:10FB6000FDF7ACBD95F88432062B05D0072B01D0EC
:10FB7000052B49D10220CBE70820C9E795F884324C
:10FB8000032B41D1FFF7EAFE00283DD00420BFE758
:10FB900095F88432032B05D1FFF7E0FE10B1042065
:10FBA000FEF77AFBFDF776F995F88C30CBB1474B31
:10FBB000D3F82C25AAB10022C3F82C2503F58F23F6
:10FBC00003F580631868444AC02140B949F2753092
:10FBD000186011601860FDF746F9062098E711607B
:10FBE000F9E7BDE87040FDF73EB995F88432032B84
:10FBF00001D0082B02D13948FFF7FCFE0020FCF7AA
:10FC00000DFFD5F8304A04B970BD20463146FEF7E5
:10FC100003FC23685C68F6E7FEF791F90020FEF725
:10FC2000C7FA8020FEF7C4FA0220FEF735FB204613
:10FC3000FCF7F4FE3046FCF7E8FE3046BDE87040C5
:10FC4000FEF70CBC95F88432082B07D10220FEF792
:10FC500023FB002385F88C300320E9E70520FEF71D
:10FC60001BFBF9E70320FCF7D9FE1D48FCF7CDFE8E
:10FC70001B48FEF7F3FB95F88432062B7FF47AAF2E
:10FC8000072045E7B078FEF7AFFB0268002A3FF493
:10FC9000B7AE4368002B3FF4B3AE314610469847E9
:10FCA0000028B1D0B07800F00F03013B062BABD891
:10FCB000BDE87040FDF762B9CC51002014ED00E0C2
:10FCC000E0410F000714E0010714C001007002407A
:10FCD00000E100E070400F0014EC0640E2410F002C
:10FCE000E3410F00094B93F8342A82420DD00528D6
:10FCF00018BF93F8352A83F8340A18BF22F002029D
:10FD0000034818BF83F8352A74E67047CC510020A9
:10FD1000E4410F00037803B96CE6054BB3F8703586
:10FD2000032B03D9034A0421FFF736B8704700BFFD
:10FD3000CC51002039FD0E005CE673B5083806286A
:10FD400025D8DFE800F026B3C12424240400694C40
:10FD500094F82C2A012A05D9674B5B681B0603D54A
:10FD600001F070FF002AFBD0FFF71EFE634BD3F8B3
:10FD70000423C3F808230022C3F80025BFF36F8FC4
:10FD8000BFF34F8FFCF742FB012384F82C3A02B0FB
:10FD900070BD584D95F82C3A012B76D8E0D1574BD1
:10FDA0004FF40062C3F80024BFF36F8FBFF34F8F8F
:10FDB000FCF738FB524C68B1FDF76CF82168514BE9
:10FDC0000322002969D149F2753121601A6021604E
:10FDD000FDF749F8FDF75EF822684B48C023002A7A
:10FDE0005DD149F27532226003602260FDF73BF875
:10FDF000424B0122C3F80025BFF36F8FBFF34F8F33
:10FE0000D3F800241605FBD54FF40062C3F8002494
:10FE1000BFF36F8FBFF34F8FFDF73CF82268002AC6
:10FE20003FD149F27533236002602360FDF71BF870
:10FE3000364B40F2E3721A60043340221A60BFF37B
:10FE40006F8FBFF34F8FA3F6040300268022C3F801
:10FE50001C25C3F8306540F2FF13C5E92036FCF7D6
:10FE6000D5FA022385F88D6085F82C3AFCF7DAFA8A
:10FE700058B1FDF70FF82168224BA9B949F2753244
:10FE8000226019602260FCF7EEFFD5F8383A002BAB
:10FE90003FF47DAF0120984779E71A6098E7036047
:10FEA000A4E700230360C1E71E60ECE702A88223F9
:10FEB00000F8043DFCF78DFD0E4BD3F8383A002BCB
:10FEC0003FF465AF0220E6E70A4B93F82C3A012B8A
:10FED0007FF646AF4FF08043D3F83824920703D51E
:10FEE0000B48FCF776FD52E7D3F83824D1077FF5AD
:10FEF0004EAFF1E7CC51002000E100E0007002407D
:10FF000000EC064014ED064014EC06400078024078
:10FF1000E5410F0030B54268927802F00F010829E0
:10FF200087B003460FD103691C6800250CB907B0E0
:10FF300030BD214625736846FCF7F0FA6846FFF7A6
:10FF4000E9FFA468F2E712F0C00120D102F030000E
:10FF500010280ED15A6911705A6818699378D468BC
:10FF600003F00F03072B09D10146204600F017F8D4
:10FF7000DDE79006F0D55B691980D8E71289214644
:10FF800014B103F0D8FBD2E703F0F9FBCFE78029E7
:10FF9000CDD10069002192060160C8D5EBE77FB59D
:10FFA0000023CDE9023183881944B0F90630049169
:10FFB000194403880591CDE900003BB16846FFF77D
:10FFC000A9FF6846FCF7A5FC0028F7D107B05DF84B
:10FFD00004FB2DE9F0415568AB7813F0C00E88B0F2
:10FFE00006468C46144604D0BEF1400F6CD0002566
:10FFF00048E05F4903F00F0201EB820103F0300398
:02000002F0000C
:10000000102BD1F878711DD006D8002BEFD12269C2
:100010002946B847054635E0202B19D0302BE6D1CC
:10002000636929881980072A0AD1636820691A89B7
:10003000714603F0A4FB63682169D868FFF7AFFF3E
:1000400022693EE0636901221A7022696168E0E773
:10005000BCF1020FD4F8148027D1042A25D804A9B2
:10006000FCF792FB05460028C1D0069B2BB16168C6
:10007000B8F800304A899A4208D8059B7360069BFD
:10008000002BB4D1284608B0BDE8F0810889226968
:1000900003FB002204A8B84728B1B8F800300133A8
:1000A000A8F80030E1E70546E7E7B8F80030216935
:1000B0002A8903FB02126989994298D90133A8F869
:1000C000003061683046A4E717693B6807F104080F
:1000D00013B9FCF7F8FB9DE7022913D104A9FCF73B
:1000E00053FB002883D03B686168424604A89847C8
:1000F000054600283FF47BAF069B002BF3D1059B00
:100100007360BFE701292BD009D305297FF46FAFB6
:1001100004220DEB0201FCF74FFB042525E000252E
:1001200001AB591901350B2D3FF461AF0122304667
:10013000FCF742FB00283FF45AAF01AB2B4413F904
:10014000013C002BECDB0B4B049301ABCDE90535F7
:10015000002307933B686168424604A8984759E723
:10016000082201A9FCF728FB08250028EBD13EE76F
:1001700070400F0057C50E002DE9F04F8B888FB0EF
:100180000025CDE904521A44B1F906300692CDE9B2
:100190000055CDE902111A44044607924FF00108B8
:1001A000A36823BBDDE9033402A89D78FCF7B1FB0B
:1001B0000028F7D115F0300F03D1039B1B8803B142
:1001C000013494B16309002293425AD10EAA02EB82
:1001D000830304F01F04C4F120044FF0FF3253F8EE
:1001E000383C22FA04F4A34209D1012008E008A90E
:1001F0002046FCF79DFA30B9A368002BD2D000202E
:100200000FB0BDE8F08F089EDDF80C90002EC9D02D
:10021000F70806F00706039B1A88974204D19B78DB
:1002200003F00F02082A32D102A8FCF772FB039BED
:100230009945F0D1BD420DD8039A937803F00F038E
:10024000082B47D002A8FCF764FB039B9945F3D128
:100250004FF0FF3531462046FCF735FB00289FD193
:10026000CDE79B681B889F4252D1494608A8FCF7FE
:1002700055F989F80C8008AA31462046FFF7A9FEF7
:1002800043E05DF822100131B9D101329CE713F04F
:10029000300F0FD1049B3F2B0CD85A090EA901EB4C
:1002A000820203F01F0352F8381C08FA03F30B43D1
:1002B00042F8383CD4F80C90B9F1000F04D002ABEE
:1002C000324639462046C84702AA31462046FFF743
:1002D00080FEC3E71588BD42BCD8069BD4F808A0B1
:1002E000D3F80090A368B9F1000F14D09A457FF4B9
:1002F00057AFD9F80030D3F800B0BBF1000FB0D041
:1003000033463A4649462046D84700283FF477AF5F
:10031000D9F80890E6E79A459CD041E7F0B585B05A
:100320000E46CC68694607461546FCF72DFA88B19B
:10033000F06878B1B37803F03003202B03D129465D
:100340002046FFF72CFE2A4621466846FFF714FF99
:10035000019B7B6005B0F0BD70B5114C114DD4F818
:10036000F433C4F8443A04F64C260F4A0F4BC4F851
:100370003C2AC4F8483A04F58362002331462846F3
:10038000C4F8402AC4F8B433C4F8B833FFF707FE02
:100390003246294604F63C20BDE87040ECE600BF3A
:1003A000CC5100200C420F0057C50E0071E50E0025
:1003B0002DE9F04F0C78062C87B080460D4600F0F2
:1003C0007C8247D8022C76D003D8012C61D0062439
:1003D00072E1032C61D0052CF9D18DF80C40C24C90
:1003E000082200210DF10D0003F0C9F9D4F8803482
:1003F000DAB28DF80D20D4F88414C9B28DF80E103D
:10040000D4F88804D4F88C5440EA052080B2ADF8C2
:100410000F00D4F89064D4F8945446EA0526B6B296
:10042000ADF81160D4F89874D4F89C44AF4D47EA05
:1004300004270024BFB2C5F8604302F01F04ADF8E2
:100440001370032C00F29381DFE814F03700690188
:10045000C801EC000D2C00F020820ED80B2C00F00F
:1004600015820C2CB3D1A14B93F8343A012B40F0F8
:1004700054810020FFF736FC1DE00E2C00F01582A1
:10048000852CA4D1994B93F8343A032B9FD10420A7
:1004900000E00320FFF726FC99E700219448FCF7D1
:1004A0000EF810B15C20FBF7D4FF904B93F8343A70
:1004B000002B00F032810024FEE0B8F1000F00F0C4
:1004C0002C81C3F34113002B40F0AC80D40900F021
:1004D000BA8006291AD0082900F0A880002940F027
:1004E000A1800222834803F04AF995F80C3143F0C9
:1004F000010285F80C2195F8352A910744BF43F095
:10050000030385F80C3102227A490CE0020A022A20
:1005100014D0032A6ED0012A40F08480002F00F00E
:10052000B181754912220DF10D00FDF70BFE044655
:10053000062C77D0002C00F0B380A7E0002F00F04D
:10054000A181D5F880621C464FF00908994686BB08
:10055000092F684E694928BF09273A46304603F0FB
:10056000EAF8D5F8803285F81041A5F80E81C5F873
:10057000CC3BC5F8D06BC5F8D47BBDF81330C5F8BB
:10058000D83BFCF787FC5E498020FDF70DFD044653
:1005900060B995F88D30802B01BF5A4BD3E900012B
:1005A00006F51576C6E9000118BF1024FCF75BFCC0
:1005B000BEE77368002B00F0B0805B68002B00F092
:1005C000AC80CDF804904FF0000A73680022D3F895
:1005D00004B03146012301A8D84740B9337A3046E8
:1005E0002344DCB2FDF7A4FCD0440646AFE70AF191
:1005F000010AEAE7002F00F0458110F0FF0005D165
:10060000FCF75EFC70B1027801468CE7052809D83A
:100610003D4B184490F8F00120B103EB80039B6A36
:10062000002BEDD103A8FDF704FFD5E095F8342A9F
:10063000052A03D185F80C41012265E7042AF1D18E
:1006400085F80C31F8E701390829EBD801A353F8F4
:1006500021F000BF79060F0025060F0079060F0074
:1006600025060F001B070F0025060F0025060F00AB
:1006700025060F0081060F000128D3D10F2405E0C5
:1006800095F8343A043B012B02D90824542038E170
:1006900010F0FF0014D1FDF752FC0420FFF722FBFD
:1006A000D5F86033002B00F0ED8095F88D40002CDC
:1006B0007FF401AFFBF7D8FE204607B0BDE8F08F0E
:1006C000012801D00724E1E7D5F880420CB90520C4
:1006D000E4E7277A0026F1B28F4217D82046FDF7CB
:1006E00027FC0446F2E700BF00700240CC51002016
:1006F000945D0020D85200203C420F004E420F0073
:1007000058420F00E8400F0070400F0000222046C2
:10071000FDF79CFD01360028DDD001F093FAD5F8F5
:100720008072F6B20FB91024B0E797F80890002451
:100730005FFA84F8C14504D83846FDF7F9FB07464F
:10074000F0E741463846FDF71FF80378B34204F15D
:100750000104EDD103A93846FDF75EFE06280446E4
:100760007FF4E8AE9DF80D1011F0600F01D0062463
:100770008CE7C90995F8342A9DF80E301CD093B146
:100780000A2BF4D1052A80D17B681B6993B14146BD
:100790003846984785F80C0101225C490DF10D009F
:1007A000FDF7D0FC18E0052A7FF46FAFA5F80C31F7
:1007B0000222F2E71846EDE70B2BD8D1052A7FF489
:1007C00064AFBDF80F30FF2B3FF67CAF9DF80F20D4
:1007D00041463846FDF73AFD0446ABE6F0B210F06C
:1007E0000F0320D19DF80D3013F0600FBFD19DF89D
:1007F0000E209DF8114095F8343A012A2ED022D3CC
:10080000032AB4D104F00F02072AB0D8BDF80F10A4
:100810000029ACD1052B02D0002A7FF436AF204648
:10082000FCF7ACFB3CE7082B3FF67DAFFDF7DCFDAA
:10083000006800283FF477AF03A9FDF7EDFD062817
:100840000446CFD076E6052B02D022077FF41DAFF9
:100850002046FCF775FBA5F80C01A9E704F00F0290
:10086000072A84D8BDF80F10002980D1052B02D0AB
:10087000002A7FF40AAF2046FCF74BFB2046FCF72A
:10088000E7FC0DE75020FBF7E4FD14E6204B93F85E
:10089000343A002B3FF40FAE3FE74FF08043D3F8DC
:1008A0003834DB0707D50220E4E5194B93F8343AD6
:1008B000012B7FF632AF0120DCE5C87803283FF436
:1008C000FBAE8B7813F07F037FF427AF104ED6F882
:1008D0006023CAB1C6F86033D6F864139047044663
:1008E00000287FF4D3AED6F8603323B1AB78002B69
:1008F0007FF4E1ADDEE6FBF7A5FD00287FF4DBAD7C
:100900005020FBF7A6FDD7E60E24BFE6D852002004
:10091000CC51002008B50C22002102F030FF024B20
:100920000022C3F8EC2308BDCC5100202DE9F74F7D
:10093000AB4CD4F8F823D4F8F4339A42264640F06E
:10094000488194F8E43B5BB1FDF74EFED4F8E03308
:10095000C4F8E80BC4F8EC3B012003B0BDE8F08F0D
:10096000FFF7FAFC002800F0368194F8E85A25B920
:1009700094F84C3A002B00F02E810023C6F8E83B97
:10098000C6F8EC3B4DB1974D96F8843BA5F19A041F
:100990002022019225B91320DFE72B46924CF7E77E
:1009A0008BBB01AB914AD6F8B813D6F8B403FBF76A
:1009B0009FFC30BB2A88402A23D1A91C8C4802F016
:1009C000BAFE8B4B03F11F021978107803F8010B64
:1009D00002F801199A42F7D2864B03F11F021978E7
:1009E000107803F8010B02F801199A42F7D2019826
:1009F000FEF7C4FD002840F0EE80221D05D101F075
:100A000021F90A20A9E71620A7E794F858300BB976
:100A10000F20A2E794F85930032BF9D894F87220EC
:100A2000032A40F0DA8094F80C80B8F1000FEFD080
:100A30002269342A40F0EA8043F204026E4F1268C1
:100A4000A18ABA4241D119B3A2690AB304F1180CC0
:100A5000CDB2002243F20C0ED0B2854201D8122052
:100A60007BE75CF82290BEF80000814502F10102AC
:100A7000F2D12279002A35D0012BA2682BD8D6F8E2
:100A8000C403824234BF002201226ABB102064E703
:100A9000A3B90129EDD9A269002AEAD104F114020F
:100AA000C8B202EB800043F20C059042D7D0B5F8F3
:100AB00000C052F804EFE645F7D1DAE713F1FF3250
:100AC00018BF0122002AD4D1C9E711B1A269002AB6
:100AD000C5D12279F6E7D6F8C803824294BF002236
:100AE0000122D2E7012B93D1012286F8E42B63BBCC
:100AF00094F868204AB3E56E002D89D0C6F8EC5B07
:100B000019B1A169003118BF01213C4C4FF0000A16
:100B100043F204095FFA8AFBBBF1010F2CD0BBF151
:100B2000020F36D0FDF760FD00238442FFF467AF6B
:100B3000201A854231D9DBB9BAF1020F18D00AF177
:100B4000010ABAF1030F13D0E4E713F0010503D053
:100B500094F85A5005B1E56D9B07CDD594F86030F7
:100B6000002BC9D0264B626EC3F57E239A4201D971
:100B70000420F2E61544BFE7FDF70EFD39B9D9F8B8
:100B80000030DB1B18BF012303F00103CDE70B4648
:100B9000FAE743464FF48050C7E7BBF1020F05D197
:100BA000FEF796F91748FFF7B5FE02E0BBF1000F1C
:100BB000F8D100231448C6F8CC330124C6F8D0433A
:100BC000FFF7A8FEC6F8E053FDF70EFDC6F8E80BE8
:100BD000C2E60820C1E60520BFE61420BDE600BF3E
:100BE000CC510020525D00201C5C0020945B002052
:100BF000B45B0020D45B0020DBE5B15100900E0017
:100C000000C00E00A0550020AC5500201120A4E625
:100C10002DE9F043814B824E14229B1B91B0B3FB14
:100C2000F2F3074602FB03F50024B046AC4231D193
:100C30007C4C1822002102A802F0A1FD04238DF8AB
:100C40000830D4F80C84D4F8EC3B984540F0D680BA
:100C500094F8E82AD4F8E86B04F6542304F52F65D9
:100C6000002A08BF1D464FF0200905F172010DEB67
:100C70000900CDF80490FCF7E5F801AB04F53F62FC
:100C800041463046FBF734FBD8B117256648FFF7DD
:100C900041FE37E058F80430A0190BB91434C5E709
:100CA000DB6998470028F9D05E4BB3F87035172BF5
:100CB00004D95E4A18213846FEF76EF811B0BDE837
:100CC000F0834A4608A904F53F6002F025FD00289C
:100CD000DBD195F85530002B35D1C4F8DC332B8AA5
:100CE0000122C4F8E8230BB16B690BB9FEF7F0F8E9
:100CF0006B68C4F8C433D4F80434C4F8E433C4F8DB
:100D0000E083012520220021494802F038FDF42229
:100D1000FF21484802F033FD0A2D88BF0B3D4FF0FC
:100D20000003C4F8EC33C4F8046484BF84F8F850BA
:100D30000B2502A88DF80950D7E9011398473E48C2
:100D4000FEF75CFBBAE703F00209DB0752D542F27B
:100D50000403F15803F1A34303F5471303F2D753F8
:100D6000994253D1AB6D03F5FF5203F6FF731F3267
:100D7000C3F30B03D31A42F20802B2589A4245D386
:100D800043F204031B688B4214BF012300231CD1D0
:100D90004FF440531B78142B81BF43F21403274AAE
:100DA0001B68B3FBF2F306F5005298BF00231278DC
:100DB000142A89BF42F214020022B2581F4988BF88
:100DC000B2FBF1F29B1A18BF012313B11C48FFF7C5
:100DD000A1FDB9F1000F14BFAC23A523C4F8E8337B
:100DE000AB6DC4F8F033B9F1000F84D06B68C4F870
:100DF000C83380E7AA23C4F8E833F4E701238DF869
:100E0000093002A8D7E90113984757E7B6F5805F84
:100E100001D1FEF75DF8052538E700BFB05100208D
:100E20009C510020CC510020AC550020110C0F002B
:100E3000C0550020E455002051E60E0040420F004E
:100E4000A0550020F0B5836887B005460BB900F0C7
:100E5000F9FE162200210DF1020002F090FC2B7821
:100E60008DF8003001228DF801200C2B00F2DB817F
:100E7000DFE813F00D007F000F007F007F00D90135
:100E80007F0075007F0073001D00300079008DF831
:100E90000420D5E90113684698479DF80130012BDD
:100EA00000F0B581BA4B0520D3F81835AEE14FF00C
:100EB0008053D3F800210192D3F804210292D3F891
:100EC0000C2192020492D3F81021920203921B6922
:100ED0000593DEE743F20403AD491C68D1F8DC2337
:100EE000AC48844214BF01230223012A2A7C08BF94
:100EF00001335AB902238DF80430D1F8C833029374
:100F0000A54B0393C3F57E230493C2E7012A12D1B4
:100F1000844210D14FF440531B78142B8ABF43F204
:100F2000140300231B6802934FF48053039343F28E
:100F300008031B68E8E79A420BD201238DF80430BE
:100F4000D1F8C4330293FDF727FB0390D1F8D433D3
:100F5000DAE7FF238DF804309BE72B7CFAE72B8A36
:100F6000ADF8043095E78A4B0720D3F81835984739
:100F70008FE7062B894A01D0012B02D1296982F81B
:100F80002C1092F82C10012906D0022900F0918033
:100F9000002382F82C30DAE0013B072B3FF657AFF5
:100FA00001A252F823F000BFC90F0F004F0E0F002F
:100FB000A3100F006F100F004F0E0F009D100F00B9
:100FC0004F0E0F0003100F00714C0320D4F818359A
:100FD00098476E69002E00F08C80B6F5807F00F295
:100FE00097800021202204F57D7084F8E41BC4F86A
:100FF000EC1302F0C4FBC4F8F46301238DF8013054
:1010000047E72F69002F3FF422AFAE8A002E3FF44E
:101010001EAF5F4CD4F8F803D4F8F43332189A4278
:1010200023D820443246394600F5836002F083FB22
:10103000D4F8F83304F57F72334431463846C4F8A7
:10104000F833FBF7CBFD0123C4F8FC038DF8013026
:10105000D4F8F8330193D4F8FC330293EB68002BF7
:101060003FF417AF2869984713E70323EEE7FFF72C
:101070005DFC0A2805D9464B0B3883F8F8000B2392
:10108000BCE701288DF801007FF403AF0020FEF7D4
:10109000B5F900283FF4FDAE0A23AFE74FF48073A3
:1010A00003933B4BD3F8F823D3F8FC33019202931C
:1010B000EFE6013B364C072B3FF6C9AE01A252F8D2
:1010C00023F000BFE5100F004F0E0F00CD110F00F1
:1010D000DB110F004F0E0F0013120F004F0E0F0009
:1010E00053110F0094F8E43B0BB9082386E76B69B2
:1010F0000BB9032382E7C3F30B0232B1D4F81024F7
:10110000D4F8EC1B1A448A42F3D1B3F5805F01D9BD
:10111000042373E7D4F81024D4F8EC1B9818884201
:10112000E3D8C4F80034D4F80834C4F80434C4F85C
:101130000C24C4F8EC236969D4F8E80B01F6FF71BC
:10114000090B1044FDF779FE00283FF4A2AE0523F9
:1011500054E794F8E43B002BC7D0D4F81014D4F82B
:101160000C34AA8A5B1AD4F8001413448B42C0D8FA
:10117000D4F8E83BD4F8EC031844EB68002B3FF4B8
:1011800066AE2969FDF77AFE50B1EB686AE700BFE9
:10119000CC510020DBE5B15100C00E000051002011
:1011A000AA8AD4F8EC331344C4F8EC33AE8AD4F8EA
:1011B0000C341E4A1E44C4F80C64A98A2869FBF743
:1011C0000DFDC4F80404CDE9016062E6D4F80434EE
:1011D0000293D4F80C3401935BE6D4F80C24D4F8D1
:1011E0001034D4F80014D31A8B427FF47EAFD4F8B5
:1011F0000434C4F8083400212846C4F80014C4F8A4
:101200001024FFF705FDD4F818350420984707B0DF
:10121000F0BDD4F804340293D4F80C3401934FF4A5
:101220008053039335E60223E8E600BFD055002043
:1012300038B50A4B0025C3F8E855BFF35F8F084C5B
:101240000123C4F8003501F0CFF9C4F8005520B1EE
:10125000052848F2035018BF032038BDCC510020A8
:1012600000A002502DE9F04113681F2B154625D927
:101270000123154C54E8008F1A4644E8002696F0E6
:10128000000FF7D1BFF35F8FB8F1000F19D10F4FE7
:101290000F4CC7F800354FF480666660083001F0E7
:1012A00073F9C7F80085C4F88460FDF7ABFFFBF75E
:1012B00077FC08B920232B60BDE8F08148F2145078
:1012C000FAE748F20450F7E7B457002000A00250B4
:1012D00000E100E02DE9F041012314460E461F4ACB
:1012E00052E8001F1D4642E8005797F0000FF7D163
:1012F000BFF35F8F71BB1A4ADFF86C80C2F800350C
:10130000184B4FF480625A6000F10807B4F5805F13
:10131000254628BF4FF4805531462A46404602F004
:101320000AFA2A464146384601F0D6F8641B2E4494
:1013300008B9002CEAD10A4B0022C3F80025094B5A
:101340004FF48062C3F88420FDF75CFFBDE8F041F4
:10135000FBF726BC48F20450BDE8F081B4570020EA
:1013600000A0025000E100E0B87A002008B5083083
:1013700001F098F8BDE80840FBF712BC2DE9F04FEA
:10138000C34C0223002587B084F87C35012604F283
:101390007F5384F87D65C4F8743584F87E5584F8ED
:1013A0007855C4F8380AFDF7D4FD002800F09B8179
:1013B00040F60303C4F8CC35C4F8DC3504F2056309
:1013C000B44AC4F8E03594F89030C4F8D42503301A
:1013D000B14AC4F8C405C4F8C85584F8C055C4F867
:1013E000D82523B194F8103C5BB3852525E094F80B
:1013F0007052C4F89430C4F89830C4F8A030C4F8DF
:101400009C305DB9A54BC4F86C3284F8706284F8E6
:10141000715294F870321BB900F014FC8525F8E77E
:10142000FDF7C4FE4FF080420123852DC2F8183528
:1014300084F89030D6D0002DD4D0284607B0BDE82F
:10144000F08F9748FDF7BEFE05460028F5D1012331
:101450004FF0805284F8103CD2F8A830D2F8A42083
:1014600000926FEA83436FEA934302AF9BB28D4AC7
:101470008D4E0D21384602F08BF9384602F0BCF94A
:10148000854208D394F89030002BC5D094F82C5A9C
:101490002DB10825D1E77B5DAB550135EDE7834BD9
:1014A000C4F88830012384F82C3AA84665F07F06FA
:1014B000082DF6B20CBF4FF4007140213046FBF707
:1014C00009FF3046FBF7F2FE0135092D80F80E804A
:1014D000C0F80080C0F80880E8D1002540212E46E1
:1014E0002846FBF7F7FE2846FBF7E0FE0135EDB294
:1014F000092D86730660866027D1482200216C483A
:1015000084F88462C4F88062C4F8306A02F037F963
:10151000482200216748684D02F031F9674B93E893
:10152000070085E8070094F8102C42B9981EFDF7D3
:1015300049FE002840F0DB80012384F8103C0025A0
:10154000DFF87C91DFF88CA113E0082D0CBF4FF47D
:1015500000714021C4E70078FCF746FFC0E9009A1B
:101560005FFA8BF13046FCF703F90BF1010B002811
:10157000F1D129464846FCF707F905F101085FFA61
:1015800088F80646B0B90B2339464D488DF8083027
:10159000FCF742FF054688B9D4F8203C002B7FF4C5
:1015A0003BAF94F82C3A012B7FF436AF8046DFF83E
:1015B00018A120E04FF0000B4546D1E794F82C3AF3
:1015C000012B7FF429AFC4F8886084F82C6A34E7D3
:1015D0000078FCF709FF03680BF1010B23B111251B
:1015E0002BE74FF0000BC8465FFA8BF13046FCF753
:1015F000BFF80028ECD141465046FCF7C5F808F189
:1016000001095FFA89F906460028EAD1DFF8B890A7
:1016100031464846FCF7B8F806F101085FFA88F849
:10162000834688BBD4F88022264B2749002A53D111
:10163000196025480B2339468DF80830FCF7ECFE7D
:10164000002852D194F82C3A012B7FF422AF4FF0AE
:1016500080434FF460721D49C3F80823C4F8A81CE6
:10166000C3F80423E9E60078FCF7BEFE184BC0F887
:10167000009043605FFA8AF15846FCF779F80AF166
:10168000010A0028EFD1C3E74FF0000A4646F1E710
:10169000CC51002025F20E00C1F20E00FDC40E0058
:1016A00066420F0070440F00DD5D002009CA0E0085
:1016B000345500207C5200207052002068420F00F8
:1016C00074420F004C540020BC410F00B9E30E00DF
:1016D00019E90E00B1030F008A423FF49DAE1B686A
:1016E0001B681A68A2E70325A7E60546A5E6852834
:1016F0007FF492AE23E708B500F0A4FA2DE9F0419B
:10170000594BD3F8046300223146154601240029C1
:1017100040F08380FAF796FE00286FD0534D95F87D
:101720008E30002B6AD1970268D55149504F40F254
:10173000A9730B604F4B1C6814F0FF041CBF1868A2
:10174000044040F2AA700860186810F0FF001CBF47
:101750001968084040F2AB713960196811F0FF0157
:10176000BC461CBF1F68394040F2AC77CCF8007013
:101770001F683C400AD0D5F8287A2743C5F8287A54
:1017800040F2A977CCF800701C601C68384F40F21A
:10179000AD743C601C6820400AD0D5F8284A44EA61
:1017A0000044C5F8284A40F2AA743C6018601868E2
:1017B0002F4840F2AE740460186801400DD0CC0789
:1017C00048BF42F40002C806294840F2AB740460E6
:1017D00019601B6848BF42F00102D5F8283A33F07F
:1017E00001111CBF06F08070024313F0011F05D0E9
:1017F000730544BFC5F8281A42F480621E4F02F4F4
:10180000000622F400044FF00108E4B9FDF718FFC8
:101810003EB3BDE8F041FBF72FBE91FAA1F31748A4
:10182000B3FA83F39F00384407683FB10560BFF304
:101830006F8FBFF34F8F04FA03F0024304FA03F3F0
:1018400021EA030163E794FAA4F5B5FA85F507EBFD
:10185000850308FA05F5D3F81432984724EA0504FD
:10186000D3E7BDE8F08100BF00700240CC510020FA
:10187000007802400478024070400F00007102407E
:101880002DE9F341114C124F124E00254FF48038D0
:10189000236804F5E04080B27BB1D7F8043308FA3E
:1018A00005F21A4209D00023236023680193019BAB
:1018B000D6F80011D6F8FC3098470135042D04F114
:1018C0000404E5D102B0BDE8F08100BF40910040C2
:1018D00000900040CC51002010B54FF08043D3F869
:1018E0000443620706D54FF48470FAF7DBFD08B1B4
:1018F00000F0A8F9A30605D54FF48A70FAF7D2FDD7
:101900000028F5D1600605D54FF48C70FAF7CAFDB2
:101910000028EDD121060BD54FF48E70FAF7C2FDE9
:1019200030B1264BD3F8A83C002BE1D000209847DB
:10193000E2050BD54FF49070FAF7B4FD30B11F4BB0
:10194000D3F8A83C002BD3D001209847A3050BD592
:101950004FF49270FAF7A6FD30B1184BD3F8A83CBB
:10196000002BC5D002209847154B1B688BB14FF454
:101970008070FAF78DFD4FF080430122C3F80823F1
:101980000E4B93F8710220B983F87122D3F86C32B0
:1019900098470C4B1B687BB14FF48270FAF778FDC7
:1019A0004FF080430222C3F80823044B0120D3F8F0
:1019B0006C32BDE81040184710BD00BFCC5100206C
:1019C0000001004004010040044B002282B01A6074
:1019D0001B680193019B02B0704700BF00010140EA
:1019E00013B52A4B1A6852B12949D1F8AC2C0132EF
:1019F000C1F8AC2C00221A601B680093009B254B99
:101A00001A68A2B100221A6023481B68027E019363
:101A1000019B4FF480339340204AC2F80833016998
:101A2000044611BB4169E1B9E36803B198471C4B17
:101A30001A684AB300221A6017481B6890F82820D9
:101A40000193019B4FF480339340144AC2F808334A
:101A5000016A044669B11C3002B0BDE81040FCF7D1
:101A60000FBD0C30FCF70CFDDEE70C30FCF708FD79
:101A7000DDE7416A11B11C30FCF702FDE3691BB1DF
:101A800002B0BDE81040184702B010BD044102404A
:101A9000CC51002040410240005100200040024053
:101AA0004441024008B54FF080430022C3F80C21A6
:101AB000C3F81021C3F838254FF0805203F5404396
:101AC000D2F80414C3F82015D2F80814C3F824156A
